{"contracts/AiBeastsBattle.sol":{"BattleBet":{"abi":[{"inputs":[],"name":"battleCounter","outputs":[{"internalType":"uint256","name":"","type":"uint256"}],"stateMutability":"view","type":"function"},{"inputs":[{"internalType":"uint256","name":"","type":"uint256"}],"name":"battles","outputs":[{"internalType":"address","name":"player1","type":"address"},{"internalType":"address","name":"player2","type":"address"},{"internalType":"uint256","name":"stake","type":"uint256"},{"internalType":"bool","name":"player1Staked","type":"bool"},{"internalType":"bool","name":"player2Staked","type":"bool"},{"internalType":"address","name":"winner","type":"address"},{"internalType":"bool","name":"finished","type":"bool"}],"stateMutability":"view","type":"function"},{"inputs":[{"internalType":"address","name":"_player2","type":"address"},{"internalType":"uint256","name":"_stake","type":"uint256"}],"name":"createBattle","outputs":[{"internalType":"uint256","name":"","type":"uint256"}],"stateMutability":"nonpayable","type":"function"},{"inputs":[{"internalType":"uint256","name":"_battleId","type":"uint256"},{"internalType":"address","name":"_winner","type":"address"}],"name":"declareWinner","outputs":[],"stateMutability":"nonpayable","type":"function"},{"inputs":[{"internalType":"uint256","name":"_battleId","type":"uint256"}],"name":"joinBattle","outputs":[],"stateMutability":"payable","type":"function"}],"evm":{"bytecode":{"linkReferences":{},"object":"60808060405234610016576105f4908161001c8239f35b600080fdfe608060408181526004908136101561001657600080fd5b600092833560e01c9081634a042f0d1461040e57508063606d2e9614610382578063a9b9be3f14610365578063c0726e91146102b55763e374b0971461005b57600080fd5b346102b157806003193601126102b157602490813573ffffffffffffffffffffffffffffffffffffffff808216908183036102ad5785358752600160205283872091600383019182549160ff8316806102a0575b1561025e5781855416811491821561024e575b50501561020c577fffffffffffffffffff000000000000000000000000000000000000000000ffff16601084901b75ffffffffffffffffffffffffffffffffffffffff00001617760100000000000000000000000000000000000000000000179055600290810154600181901b929181159184041417156101fa578580809381935af13d156101f55767ffffffffffffffff3d8181116101e357835191601f8201601f19908116603f01168301908111838210176101d157845281528560203d92013e5b1561018f578380f35b606492916020601992519362461bcd60e51b85528401528201527f5472616e7366657220746f2077696e6e6572206661696c6564000000000000006044820152fd5b8588604189634e487b7160e01b835252fd5b8487604188634e487b7160e01b835252fd5b610186565b8386601187634e487b7160e01b835252fd5b606487600e88602089519362461bcd60e51b85528401528201527f496e76616c69642077696e6e65720000000000000000000000000000000000006044820152fd5b60018601541614905038806100c2565b60648960178a60208b519362461bcd60e51b85528401528201527f426f746820706c6179657273206d757374207374616b650000000000000000006044820152fd5b5060ff8360081c166100af565b8680fd5b8280fd5b508234610362578160031936011261036257823573ffffffffffffffffffffffffffffffffffffffff811680910361035e578154600019811461034b5760209450600101808355825260018452828220907fffffffffffffffffffffffff000000000000000000000000000000000000000090338284541617835560018301918254161790556002602435910155549051908152f35b602483601187634e487b7160e01b835252fd5b5080fd5b80fd5b83823461035e578160031936011261035e57602091549051908152f35b5090346102b15760203660031901126102b1578160e09360ff923581526001602052209173ffffffffffffffffffffffffffffffffffffffff8084541693816001820154169260036002830154920154938151968752602087015285015282821615156060850152828260081c16151560808501528160101c1660a084015260b01c16151560c0820152f35b6020939150366003190184136105ba578135855260018452828520906002820154340361057a575073ffffffffffffffffffffffffffffffffffffffff8082541633148091811561056a575b50156105285760039190156104c657019283549260ff84166104855750505060ff1916600117905580f35b60649350519162461bcd60e51b8352820152601660248201527f506c617965723120616c7265616479207374616b6564000000000000000000006044820152fd5b019283549260ff8460081c166104e75750505061ff00191661010017905580f35b60649350519162461bcd60e51b8352820152601660248201527f506c617965723220616c7265616479207374616b6564000000000000000000006044820152fd5b6064838686519162461bcd60e51b8352820152601160248201527f4e6f742061207061727469636970616e740000000000000000000000000000006044820152fd5b905060018301541633143861045a565b80858462461bcd60e51b60649452820152601760248201527f4d7573742073656e6420636f7272656374207374616b650000000000000000006044820152fd5b8480fdfea26469706673582212202f7278e9092a889c2ae3b519ded53096cd564a4716f9958ba26664dc14ec615164736f6c63430008180033","opcodes":"PUSH1 0x80 DUP1 PUSH1 0x40 MSTORE CALLVALUE PUSH2 0x16 JUMPI PUSH2 0x5F4 SWAP1 DUP2 PUSH2 0x1C DUP3 CODECOPY RETURN JUMPDEST PUSH1 0x0 DUP1 REVERT INVALID PUSH1 0x80 PUSH1 0x40 DUP2 DUP2 MSTORE PUSH1 0x4 SWAP1 DUP2 CALLDATASIZE LT ISZERO PUSH2 0x16 JUMPI PUSH1 0x0 DUP1 REVERT JUMPDEST PUSH1 0x0 SWAP3 DUP4 CALLDATALOAD PUSH1 0xE0 SHR SWAP1 DUP2 PUSH4 0x4A042F0D EQ PUSH2 0x40E JUMPI POP DUP1 PUSH4 0x606D2E96 EQ PUSH2 0x382 JUMPI DUP1 PUSH4 0xA9B9BE3F EQ PUSH2 0x365 JUMPI DUP1 PUSH4 0xC0726E91 EQ PUSH2 0x2B5 JUMPI PUSH4 0xE374B097 EQ PUSH2 0x5B JUMPI PUSH1 0x0 DUP1 REVERT JUMPDEST CALLVALUE PUSH2 0x2B1 JUMPI DUP1 PUSH1 0x3 NOT CALLDATASIZE ADD SLT PUSH2 0x2B1 JUMPI PUSH1 0x24 SWAP1 DUP2 CALLDATALOAD PUSH20 0xFFFFFFFFFFFFFFFFFFFFFFFFFFFFFFFFFFFFFFFF DUP1 DUP3 AND SWAP1 DUP2 DUP4 SUB PUSH2 0x2AD JUMPI DUP6 CALLDATALOAD DUP8 MSTORE PUSH1 0x1 PUSH1 0x20 MSTORE DUP4 DUP8 KECCAK256 SWAP2 PUSH1 0x3 DUP4 ADD SWAP2 DUP3 SLOAD SWAP2 PUSH1 0xFF DUP4 AND DUP1 PUSH2 0x2A0 JUMPI JUMPDEST ISZERO PUSH2 0x25E JUMPI DUP2 DUP6 SLOAD AND DUP2 EQ SWAP2 DUP3 ISZERO PUSH2 0x24E JUMPI JUMPDEST POP POP ISZERO PUSH2 0x20C JUMPI PUSH32 0xFFFFFFFFFFFFFFFFFF000000000000000000000000000000000000000000FFFF AND PUSH1 0x10 DUP5 SWAP1 SHL PUSH22 0xFFFFFFFFFFFFFFFFFFFFFFFFFFFFFFFFFFFFFFFF0000 AND OR PUSH23 0x100000000000000000000000000000000000000000000 OR SWAP1 SSTORE PUSH1 0x2 SWAP1 DUP2 ADD SLOAD PUSH1 0x1 DUP2 SWAP1 SHL SWAP3 SWAP2 DUP2 ISZERO SWAP2 DUP5 DIV EQ OR ISZERO PUSH2 0x1FA JUMPI DUP6 DUP1 DUP1 SWAP4 DUP2 SWAP4 GAS CALL RETURNDATASIZE ISZERO PUSH2 0x1F5 JUMPI PUSH8 0xFFFFFFFFFFFFFFFF RETURNDATASIZE DUP2 DUP2 GT PUSH2 0x1E3 JUMPI DUP4 MLOAD SWAP2 PUSH1 0x1F DUP3 ADD PUSH1 0x1F NOT SWAP1 DUP2 AND PUSH1 0x3F ADD AND DUP4 ADD SWAP1 DUP2 GT DUP4 DUP3 LT OR PUSH2 0x1D1 JUMPI DUP5 MSTORE DUP2 MSTORE DUP6 PUSH1 0x20 RETURNDATASIZE SWAP3 ADD RETURNDATACOPY JUMPDEST ISZERO PUSH2 0x18F JUMPI DUP4 DUP1 RETURN JUMPDEST PUSH1 0x64 SWAP3 SWAP2 PUSH1 0x20 PUSH1 0x19 SWAP3 MLOAD SWAP4 PUSH3 0x461BCD PUSH1 0xE5 SHL DUP6 MSTORE DUP5 ADD MSTORE DUP3 ADD MSTORE PUSH32 0x5472616E7366657220746F2077696E6E6572206661696C656400000000000000 PUSH1 0x44 DUP3 ADD MSTORE REVERT JUMPDEST DUP6 DUP9 PUSH1 0x41 DUP10 PUSH4 0x4E487B71 PUSH1 0xE0 SHL DUP4 MSTORE MSTORE REVERT JUMPDEST DUP5 DUP8 PUSH1 0x41 DUP9 PUSH4 0x4E487B71 PUSH1 0xE0 SHL DUP4 MSTORE MSTORE REVERT JUMPDEST PUSH2 0x186 JUMP JUMPDEST DUP4 DUP7 PUSH1 0x11 DUP8 PUSH4 0x4E487B71 PUSH1 0xE0 SHL DUP4 MSTORE MSTORE REVERT JUMPDEST PUSH1 0x64 DUP8 PUSH1 0xE DUP9 PUSH1 0x20 DUP10 MLOAD SWAP4 PUSH3 0x461BCD PUSH1 0xE5 SHL DUP6 MSTORE DUP5 ADD MSTORE DUP3 ADD MSTORE PUSH32 0x496E76616C69642077696E6E6572000000000000000000000000000000000000 PUSH1 0x44 DUP3 ADD MSTORE REVERT JUMPDEST PUSH1 0x1 DUP7 ADD SLOAD AND EQ SWAP1 POP CODESIZE DUP1 PUSH2 0xC2 JUMP JUMPDEST PUSH1 0x64 DUP10 PUSH1 0x17 DUP11 PUSH1 0x20 DUP12 MLOAD SWAP4 PUSH3 0x461BCD PUSH1 0xE5 SHL DUP6 MSTORE DUP5 ADD MSTORE DUP3 ADD MSTORE PUSH32 0x426F746820706C6179657273206D757374207374616B65000000000000000000 PUSH1 0x44 DUP3 ADD MSTORE REVERT JUMPDEST POP PUSH1 0xFF DUP4 PUSH1 0x8 SHR AND PUSH2 0xAF JUMP JUMPDEST DUP7 DUP1 REVERT JUMPDEST DUP3 DUP1 REVERT JUMPDEST POP DUP3 CALLVALUE PUSH2 0x362 JUMPI DUP2 PUSH1 0x3 NOT CALLDATASIZE ADD SLT PUSH2 0x362 JUMPI DUP3 CALLDATALOAD PUSH20 0xFFFFFFFFFFFFFFFFFFFFFFFFFFFFFFFFFFFFFFFF DUP2 AND DUP1 SWAP2 SUB PUSH2 0x35E JUMPI DUP2 SLOAD PUSH1 0x0 NOT DUP2 EQ PUSH2 0x34B JUMPI PUSH1 0x20 SWAP5 POP PUSH1 0x1 ADD DUP1 DUP4 SSTORE DUP3 MSTORE PUSH1 0x1 DUP5 MSTORE DUP3 DUP3 KECCAK256 SWAP1 PUSH32 0xFFFFFFFFFFFFFFFFFFFFFFFF0000000000000000000000000000000000000000 SWAP1 CALLER DUP3 DUP5 SLOAD AND OR DUP4 SSTORE PUSH1 0x1 DUP4 ADD SWAP2 DUP3 SLOAD AND OR SWAP1 SSTORE PUSH1 0x2 PUSH1 0x24 CALLDATALOAD SWAP2 ADD SSTORE SLOAD SWAP1 MLOAD SWAP1 DUP2 MSTORE RETURN JUMPDEST PUSH1 0x24 DUP4 PUSH1 0x11 DUP8 PUSH4 0x4E487B71 PUSH1 0xE0 SHL DUP4 MSTORE MSTORE REVERT JUMPDEST POP DUP1 REVERT JUMPDEST DUP1 REVERT JUMPDEST DUP4 DUP3 CALLVALUE PUSH2 0x35E JUMPI DUP2 PUSH1 0x3 NOT CALLDATASIZE ADD SLT PUSH2 0x35E JUMPI PUSH1 0x20 SWAP2 SLOAD SWAP1 MLOAD SWAP1 DUP2 MSTORE RETURN JUMPDEST POP SWAP1 CALLVALUE PUSH2 0x2B1 JUMPI PUSH1 0x20 CALLDATASIZE PUSH1 0x3 NOT ADD SLT PUSH2 0x2B1 JUMPI DUP2 PUSH1 0xE0 SWAP4 PUSH1 0xFF SWAP3 CALLDATALOAD DUP2 MSTORE PUSH1 0x1 PUSH1 0x20 MSTORE KECCAK256 SWAP2 PUSH20 0xFFFFFFFFFFFFFFFFFFFFFFFFFFFFFFFFFFFFFFFF DUP1 DUP5 SLOAD AND SWAP4 DUP2 PUSH1 0x1 DUP3 ADD SLOAD AND SWAP3 PUSH1 0x3 PUSH1 0x2 DUP4 ADD SLOAD SWAP3 ADD SLOAD SWAP4 DUP2 MLOAD SWAP7 DUP8 MSTORE PUSH1 0x20 DUP8 ADD MSTORE DUP6 ADD MSTORE DUP3 DUP3 AND ISZERO ISZERO PUSH1 0x60 DUP6 ADD MSTORE DUP3 DUP3 PUSH1 0x8 SHR AND ISZERO ISZERO PUSH1 0x80 DUP6 ADD MSTORE DUP2 PUSH1 0x10 SHR AND PUSH1 0xA0 DUP5 ADD MSTORE PUSH1 0xB0 SHR AND ISZERO ISZERO PUSH1 0xC0 DUP3 ADD MSTORE RETURN JUMPDEST PUSH1 0x20 SWAP4 SWAP2 POP CALLDATASIZE PUSH1 0x3 NOT ADD DUP5 SGT PUSH2 0x5BA JUMPI DUP2 CALLDATALOAD DUP6 MSTORE PUSH1 0x1 DUP5 MSTORE DUP3 DUP6 KECCAK256 SWAP1 PUSH1 0x2 DUP3 ADD SLOAD CALLVALUE SUB PUSH2 0x57A JUMPI POP PUSH20 0xFFFFFFFFFFFFFFFFFFFFFFFFFFFFFFFFFFFFFFFF DUP1 DUP3 SLOAD AND CALLER EQ DUP1 SWAP2 DUP2 ISZERO PUSH2 0x56A JUMPI JUMPDEST POP ISZERO PUSH2 0x528 JUMPI PUSH1 0x3 SWAP2 SWAP1 ISZERO PUSH2 0x4C6 JUMPI ADD SWAP3 DUP4 SLOAD SWAP3 PUSH1 0xFF DUP5 AND PUSH2 0x485 JUMPI POP POP POP PUSH1 0xFF NOT AND PUSH1 0x1 OR SWAP1 SSTORE DUP1 RETURN JUMPDEST PUSH1 0x64 SWAP4 POP MLOAD SWAP2 PUSH3 0x461BCD PUSH1 0xE5 SHL DUP4 MSTORE DUP3 ADD MSTORE PUSH1 0x16 PUSH1 0x24 DUP3 ADD MSTORE PUSH32 0x506C617965723120616C7265616479207374616B656400000000000000000000 PUSH1 0x44 DUP3 ADD MSTORE REVERT JUMPDEST ADD SWAP3 DUP4 SLOAD SWAP3 PUSH1 0xFF DUP5 PUSH1 0x8 SHR AND PUSH2 0x4E7 JUMPI POP POP POP PUSH2 0xFF00 NOT AND PUSH2 0x100 OR SWAP1 SSTORE DUP1 RETURN JUMPDEST PUSH1 0x64 SWAP4 POP MLOAD SWAP2 PUSH3 0x461BCD PUSH1 0xE5 SHL DUP4 MSTORE DUP3 ADD MSTORE PUSH1 0x16 PUSH1 0x24 DUP3 ADD MSTORE PUSH32 0x506C617965723220616C7265616479207374616B656400000000000000000000 PUSH1 0x44 DUP3 ADD MSTORE REVERT JUMPDEST PUSH1 0x64 DUP4 DUP7 DUP7 MLOAD SWAP2 PUSH3 0x461BCD PUSH1 0xE5 SHL DUP4 MSTORE DUP3 ADD MSTORE PUSH1 0x11 PUSH1 0x24 DUP3 ADD MSTORE PUSH32 0x4E6F742061207061727469636970616E74000000000000000000000000000000 PUSH1 0x44 DUP3 ADD MSTORE REVERT JUMPDEST SWAP1 POP PUSH1 0x1 DUP4 ADD SLOAD AND CALLER EQ CODESIZE PUSH2 0x45A JUMP JUMPDEST DUP1 DUP6 DUP5 PUSH3 0x461BCD PUSH1 0xE5 SHL PUSH1 0x64 SWAP5 MSTORE DUP3 ADD MSTORE PUSH1 0x17 PUSH1 0x24 DUP3 ADD MSTORE PUSH32 0x4D7573742073656E6420636F7272656374207374616B65000000000000000000 PUSH1 0x44 DUP3 ADD MSTORE REVERT JUMPDEST DUP5 DUP1 REVERT INVALID LOG2 PUSH5 0x6970667358 0x22 SLT KECCAK256 0x2F PUSH19 0x78E9092A889C2AE3B519DED53096CD564A4716 0xF9 SWAP6 DUP12 LOG2 PUSH7 0x64DC14EC615164 PUSH20 0x6F6C634300081800330000000000000000000000 "},"methodIdentifiers":{"battleCounter()":"a9b9be3f","battles(uint256)":"606d2e96","createBattle(address,uint256)":"c0726e91","declareWinner(uint256,address)":"e374b097","joinBattle(uint256)":"4a042f0d"}}}}}