{"contracts/AiBeastsBattle.sol":{"BattleBet":{"abi":[{"inputs":[],"name":"battleCounter","outputs":[{"internalType":"uint256","name":"","type":"uint256"}],"stateMutability":"view","type":"function"},{"inputs":[{"internalType":"uint256","name":"","type":"uint256"}],"name":"battles","outputs":[{"internalType":"address","name":"player1","type":"address"},{"internalType":"address","name":"player2","type":"address"},{"internalType":"uint256","name":"stake","type":"uint256"},{"internalType":"bool","name":"player1Staked","type":"bool"},{"internalType":"bool","name":"player2Staked","type":"bool"},{"internalType":"address","name":"winner","type":"address"},{"internalType":"bool","name":"finished","type":"bool"}],"stateMutability":"view","type":"function"},{"inputs":[{"internalType":"address","name":"_player2","type":"address"},{"internalType":"uint256","name":"_stake","type":"uint256"}],"name":"createBattle","outputs":[{"internalType":"uint256","name":"","type":"uint256"}],"stateMutability":"nonpayable","type":"function"},{"inputs":[{"internalType":"uint256","name":"_battleId","type":"uint256"},{"internalType":"address","name":"_winner","type":"address"}],"name":"declareWinner","outputs":[],"stateMutability":"nonpayable","type":"function"},{"inputs":[{"internalType":"uint256","name":"_battleId","type":"uint256"}],"name":"joinBattle","outputs":[],"stateMutability":"payable","type":"function"}],"evm":{"bytecode":{"linkReferences":{},"object":"608080604052346100165761063c908161001c8239f35b600080fdfe608060408181526004908136101561001657600080fd5b600092833560e01c9081634a042f0d1461045657508063606d2e96146103ca578063a9b9be3f146103ad578063c0726e91146102fd5763e374b0971461005b57600080fd5b346102f957806003193601126102f95760249073ffffffffffffffffffffffffffffffffffffffff9082358281168082036102f557853587526020936001855283882091600383019182549160ff8316806102e8575b156102a75760ff8360b01c1661026657818554168114918215610256575b505015610215577fffffffffffffffffff000000000000000000000000000000000000000000ffff16601084901b75ffffffffffffffffffffffffffffffffffffffff00001617760100000000000000000000000000000000000000000000179055600290810154600181901b92918115918404141715610203578680809381935af13d156101fe5767ffffffffffffffff3d8181116101ec57835191601f8201601f19908116603f01168301908111838210176101da578452815286843d92013e5b1561019b578480f35b5162461bcd60e51b8152928301526019908201527f5472616e7366657220746f2077696e6e6572206661696c6564000000000000006044820152606490fd5b868960418a634e487b7160e01b835252fd5b8588604189634e487b7160e01b835252fd5b610192565b8487601188634e487b7160e01b835252fd5b606488600e898989519362461bcd60e51b85528401528201527f496e76616c69642077696e6e65720000000000000000000000000000000000006044820152fd5b60018601541614905038806100cf565b60648a60178b8b8b519362461bcd60e51b85528401528201527f426174746c6520616c72656164792066696e69736865640000000000000000006044820152fd5b60648a60178b8b8b519362461bcd60e51b85528401528201527f426f746820706c6179657273206d757374207374616b650000000000000000006044820152fd5b5060ff8360081c166100b1565b8680fd5b8280fd5b5082346103aa57816003193601126103aa57823573ffffffffffffffffffffffffffffffffffffffff81168091036103a657815460001981146103935760209450600101808355825260018452828220907fffffffffffffffffffffffff000000000000000000000000000000000000000090338284541617835560018301918254161790556002602435910155549051908152f35b602483601187634e487b7160e01b835252fd5b5080fd5b80fd5b8382346103a657816003193601126103a657602091549051908152f35b5090346102f95760203660031901126102f9578160e09360ff923581526001602052209173ffffffffffffffffffffffffffffffffffffffff8084541693816001820154169260036002830154920154938151968752602087015285015282821615156060850152828260081c16151560808501528160101c1660a084015260b01c16151560c0820152f35b60209391503660031901841361060257813585526001845282852090600282015434036105c2575073ffffffffffffffffffffffffffffffffffffffff808254163314809181156105b2575b501561057057600391901561050e57019283549260ff84166104cd5750505060ff1916600117905580f35b60649350519162461bcd60e51b8352820152601660248201527f506c617965723120616c7265616479207374616b6564000000000000000000006044820152fd5b019283549260ff8460081c1661052f5750505061ff00191661010017905580f35b60649350519162461bcd60e51b8352820152601660248201527f506c617965723220616c7265616479207374616b6564000000000000000000006044820152fd5b6064838686519162461bcd60e51b8352820152601160248201527f4e6f742061207061727469636970616e740000000000000000000000000000006044820152fd5b90506001830154163314386104a2565b80858462461bcd60e51b60649452820152601760248201527f4d7573742073656e6420636f7272656374207374616b650000000000000000006044820152fd5b8480fdfea26469706673582212204655bc3991a25a51bec689a99d449e4c301129cbb9cd513129d78faef859e29164736f6c63430008180033","opcodes":"PUSH1 0x80 DUP1 PUSH1 0x40 MSTORE CALLVALUE PUSH2 0x16 JUMPI PUSH2 0x63C SWAP1 DUP2 PUSH2 0x1C DUP3 CODECOPY RETURN JUMPDEST PUSH1 0x0 DUP1 REVERT INVALID PUSH1 0x80 PUSH1 0x40 DUP2 DUP2 MSTORE PUSH1 0x4 SWAP1 DUP2 CALLDATASIZE LT ISZERO PUSH2 0x16 JUMPI PUSH1 0x0 DUP1 REVERT JUMPDEST PUSH1 0x0 SWAP3 DUP4 CALLDATALOAD PUSH1 0xE0 SHR SWAP1 DUP2 PUSH4 0x4A042F0D EQ PUSH2 0x456 JUMPI POP DUP1 PUSH4 0x606D2E96 EQ PUSH2 0x3CA JUMPI DUP1 PUSH4 0xA9B9BE3F EQ PUSH2 0x3AD JUMPI DUP1 PUSH4 0xC0726E91 EQ PUSH2 0x2FD JUMPI PUSH4 0xE374B097 EQ PUSH2 0x5B JUMPI PUSH1 0x0 DUP1 REVERT JUMPDEST CALLVALUE PUSH2 0x2F9 JUMPI DUP1 PUSH1 0x3 NOT CALLDATASIZE ADD SLT PUSH2 0x2F9 JUMPI PUSH1 0x24 SWAP1 PUSH20 0xFFFFFFFFFFFFFFFFFFFFFFFFFFFFFFFFFFFFFFFF SWAP1 DUP3 CALLDATALOAD DUP3 DUP2 AND DUP1 DUP3 SUB PUSH2 0x2F5 JUMPI DUP6 CALLDATALOAD DUP8 MSTORE PUSH1 0x20 SWAP4 PUSH1 0x1 DUP6 MSTORE DUP4 DUP9 KECCAK256 SWAP2 PUSH1 0x3 DUP4 ADD SWAP2 DUP3 SLOAD SWAP2 PUSH1 0xFF DUP4 AND DUP1 PUSH2 0x2E8 JUMPI JUMPDEST ISZERO PUSH2 0x2A7 JUMPI PUSH1 0xFF DUP4 PUSH1 0xB0 SHR AND PUSH2 0x266 JUMPI DUP2 DUP6 SLOAD AND DUP2 EQ SWAP2 DUP3 ISZERO PUSH2 0x256 JUMPI JUMPDEST POP POP ISZERO PUSH2 0x215 JUMPI PUSH32 0xFFFFFFFFFFFFFFFFFF000000000000000000000000000000000000000000FFFF AND PUSH1 0x10 DUP5 SWAP1 SHL PUSH22 0xFFFFFFFFFFFFFFFFFFFFFFFFFFFFFFFFFFFFFFFF0000 AND OR PUSH23 0x100000000000000000000000000000000000000000000 OR SWAP1 SSTORE PUSH1 0x2 SWAP1 DUP2 ADD SLOAD PUSH1 0x1 DUP2 SWAP1 SHL SWAP3 SWAP2 DUP2 ISZERO SWAP2 DUP5 DIV EQ OR ISZERO PUSH2 0x203 JUMPI DUP7 DUP1 DUP1 SWAP4 DUP2 SWAP4 GAS CALL RETURNDATASIZE ISZERO PUSH2 0x1FE JUMPI PUSH8 0xFFFFFFFFFFFFFFFF RETURNDATASIZE DUP2 DUP2 GT PUSH2 0x1EC JUMPI DUP4 MLOAD SWAP2 PUSH1 0x1F DUP3 ADD PUSH1 0x1F NOT SWAP1 DUP2 AND PUSH1 0x3F ADD AND DUP4 ADD SWAP1 DUP2 GT DUP4 DUP3 LT OR PUSH2 0x1DA JUMPI DUP5 MSTORE DUP2 MSTORE DUP7 DUP5 RETURNDATASIZE SWAP3 ADD RETURNDATACOPY JUMPDEST ISZERO PUSH2 0x19B JUMPI DUP5 DUP1 RETURN JUMPDEST MLOAD PUSH3 0x461BCD PUSH1 0xE5 SHL DUP2 MSTORE SWAP3 DUP4 ADD MSTORE PUSH1 0x19 SWAP1 DUP3 ADD MSTORE PUSH32 0x5472616E7366657220746F2077696E6E6572206661696C656400000000000000 PUSH1 0x44 DUP3 ADD MSTORE PUSH1 0x64 SWAP1 REVERT JUMPDEST DUP7 DUP10 PUSH1 0x41 DUP11 PUSH4 0x4E487B71 PUSH1 0xE0 SHL DUP4 MSTORE MSTORE REVERT JUMPDEST DUP6 DUP9 PUSH1 0x41 DUP10 PUSH4 0x4E487B71 PUSH1 0xE0 SHL DUP4 MSTORE MSTORE REVERT JUMPDEST PUSH2 0x192 JUMP JUMPDEST DUP5 DUP8 PUSH1 0x11 DUP9 PUSH4 0x4E487B71 PUSH1 0xE0 SHL DUP4 MSTORE MSTORE REVERT JUMPDEST PUSH1 0x64 DUP9 PUSH1 0xE DUP10 DUP10 DUP10 MLOAD SWAP4 PUSH3 0x461BCD PUSH1 0xE5 SHL DUP6 MSTORE DUP5 ADD MSTORE DUP3 ADD MSTORE PUSH32 0x496E76616C69642077696E6E6572000000000000000000000000000000000000 PUSH1 0x44 DUP3 ADD MSTORE REVERT JUMPDEST PUSH1 0x1 DUP7 ADD SLOAD AND EQ SWAP1 POP CODESIZE DUP1 PUSH2 0xCF JUMP JUMPDEST PUSH1 0x64 DUP11 PUSH1 0x17 DUP12 DUP12 DUP12 MLOAD SWAP4 PUSH3 0x461BCD PUSH1 0xE5 SHL DUP6 MSTORE DUP5 ADD MSTORE DUP3 ADD MSTORE PUSH32 0x426174746C6520616C72656164792066696E6973686564000000000000000000 PUSH1 0x44 DUP3 ADD MSTORE REVERT JUMPDEST PUSH1 0x64 DUP11 PUSH1 0x17 DUP12 DUP12 DUP12 MLOAD SWAP4 PUSH3 0x461BCD PUSH1 0xE5 SHL DUP6 MSTORE DUP5 ADD MSTORE DUP3 ADD MSTORE PUSH32 0x426F746820706C6179657273206D757374207374616B65000000000000000000 PUSH1 0x44 DUP3 ADD MSTORE REVERT JUMPDEST POP PUSH1 0xFF DUP4 PUSH1 0x8 SHR AND PUSH2 0xB1 JUMP JUMPDEST DUP7 DUP1 REVERT JUMPDEST DUP3 DUP1 REVERT JUMPDEST POP DUP3 CALLVALUE PUSH2 0x3AA JUMPI DUP2 PUSH1 0x3 NOT CALLDATASIZE ADD SLT PUSH2 0x3AA JUMPI DUP3 CALLDATALOAD PUSH20 0xFFFFFFFFFFFFFFFFFFFFFFFFFFFFFFFFFFFFFFFF DUP2 AND DUP1 SWAP2 SUB PUSH2 0x3A6 JUMPI DUP2 SLOAD PUSH1 0x0 NOT DUP2 EQ PUSH2 0x393 JUMPI PUSH1 0x20 SWAP5 POP PUSH1 0x1 ADD DUP1 DUP4 SSTORE DUP3 MSTORE PUSH1 0x1 DUP5 MSTORE DUP3 DUP3 KECCAK256 SWAP1 PUSH32 0xFFFFFFFFFFFFFFFFFFFFFFFF0000000000000000000000000000000000000000 SWAP1 CALLER DUP3 DUP5 SLOAD AND OR DUP4 SSTORE PUSH1 0x1 DUP4 ADD SWAP2 DUP3 SLOAD AND OR SWAP1 SSTORE PUSH1 0x2 PUSH1 0x24 CALLDATALOAD SWAP2 ADD SSTORE SLOAD SWAP1 MLOAD SWAP1 DUP2 MSTORE RETURN JUMPDEST PUSH1 0x24 DUP4 PUSH1 0x11 DUP8 PUSH4 0x4E487B71 PUSH1 0xE0 SHL DUP4 MSTORE MSTORE REVERT JUMPDEST POP DUP1 REVERT JUMPDEST DUP1 REVERT JUMPDEST DUP4 DUP3 CALLVALUE PUSH2 0x3A6 JUMPI DUP2 PUSH1 0x3 NOT CALLDATASIZE ADD SLT PUSH2 0x3A6 JUMPI PUSH1 0x20 SWAP2 SLOAD SWAP1 MLOAD SWAP1 DUP2 MSTORE RETURN JUMPDEST POP SWAP1 CALLVALUE PUSH2 0x2F9 JUMPI PUSH1 0x20 CALLDATASIZE PUSH1 0x3 NOT ADD SLT PUSH2 0x2F9 JUMPI DUP2 PUSH1 0xE0 SWAP4 PUSH1 0xFF SWAP3 CALLDATALOAD DUP2 MSTORE PUSH1 0x1 PUSH1 0x20 MSTORE KECCAK256 SWAP2 PUSH20 0xFFFFFFFFFFFFFFFFFFFFFFFFFFFFFFFFFFFFFFFF DUP1 DUP5 SLOAD AND SWAP4 DUP2 PUSH1 0x1 DUP3 ADD SLOAD AND SWAP3 PUSH1 0x3 PUSH1 0x2 DUP4 ADD SLOAD SWAP3 ADD SLOAD SWAP4 DUP2 MLOAD SWAP7 DUP8 MSTORE PUSH1 0x20 DUP8 ADD MSTORE DUP6 ADD MSTORE DUP3 DUP3 AND ISZERO ISZERO PUSH1 0x60 DUP6 ADD MSTORE DUP3 DUP3 PUSH1 0x8 SHR AND ISZERO ISZERO PUSH1 0x80 DUP6 ADD MSTORE DUP2 PUSH1 0x10 SHR AND PUSH1 0xA0 DUP5 ADD MSTORE PUSH1 0xB0 SHR AND ISZERO ISZERO PUSH1 0xC0 DUP3 ADD MSTORE RETURN JUMPDEST PUSH1 0x20 SWAP4 SWAP2 POP CALLDATASIZE PUSH1 0x3 NOT ADD DUP5 SGT PUSH2 0x602 JUMPI DUP2 CALLDATALOAD DUP6 MSTORE PUSH1 0x1 DUP5 MSTORE DUP3 DUP6 KECCAK256 SWAP1 PUSH1 0x2 DUP3 ADD SLOAD CALLVALUE SUB PUSH2 0x5C2 JUMPI POP PUSH20 0xFFFFFFFFFFFFFFFFFFFFFFFFFFFFFFFFFFFFFFFF DUP1 DUP3 SLOAD AND CALLER EQ DUP1 SWAP2 DUP2 ISZERO PUSH2 0x5B2 JUMPI JUMPDEST POP ISZERO PUSH2 0x570 JUMPI PUSH1 0x3 SWAP2 SWAP1 ISZERO PUSH2 0x50E JUMPI ADD SWAP3 DUP4 SLOAD SWAP3 PUSH1 0xFF DUP5 AND PUSH2 0x4CD JUMPI POP POP POP PUSH1 0xFF NOT AND PUSH1 0x1 OR SWAP1 SSTORE DUP1 RETURN JUMPDEST PUSH1 0x64 SWAP4 POP MLOAD SWAP2 PUSH3 0x461BCD PUSH1 0xE5 SHL DUP4 MSTORE DUP3 ADD MSTORE PUSH1 0x16 PUSH1 0x24 DUP3 ADD MSTORE PUSH32 0x506C617965723120616C7265616479207374616B656400000000000000000000 PUSH1 0x44 DUP3 ADD MSTORE REVERT JUMPDEST ADD SWAP3 DUP4 SLOAD SWAP3 PUSH1 0xFF DUP5 PUSH1 0x8 SHR AND PUSH2 0x52F JUMPI POP POP POP PUSH2 0xFF00 NOT AND PUSH2 0x100 OR SWAP1 SSTORE DUP1 RETURN JUMPDEST PUSH1 0x64 SWAP4 POP MLOAD SWAP2 PUSH3 0x461BCD PUSH1 0xE5 SHL DUP4 MSTORE DUP3 ADD MSTORE PUSH1 0x16 PUSH1 0x24 DUP3 ADD MSTORE PUSH32 0x506C617965723220616C7265616479207374616B656400000000000000000000 PUSH1 0x44 DUP3 ADD MSTORE REVERT JUMPDEST PUSH1 0x64 DUP4 DUP7 DUP7 MLOAD SWAP2 PUSH3 0x461BCD PUSH1 0xE5 SHL DUP4 MSTORE DUP3 ADD MSTORE PUSH1 0x11 PUSH1 0x24 DUP3 ADD MSTORE PUSH32 0x4E6F742061207061727469636970616E74000000000000000000000000000000 PUSH1 0x44 DUP3 ADD MSTORE REVERT JUMPDEST SWAP1 POP PUSH1 0x1 DUP4 ADD SLOAD AND CALLER EQ CODESIZE PUSH2 0x4A2 JUMP JUMPDEST DUP1 DUP6 DUP5 PUSH3 0x461BCD PUSH1 0xE5 SHL PUSH1 0x64 SWAP5 MSTORE DUP3 ADD MSTORE PUSH1 0x17 PUSH1 0x24 DUP3 ADD MSTORE PUSH32 0x4D7573742073656E6420636F7272656374207374616B65000000000000000000 PUSH1 0x44 DUP3 ADD MSTORE REVERT JUMPDEST DUP5 DUP1 REVERT INVALID LOG2 PUSH5 0x6970667358 0x22 SLT KECCAK256 CHAINID SSTORE 0xBC CODECOPY SWAP2 LOG2 GAS MLOAD 0xBE 0xC6 DUP10 0xA9 SWAP14 PREVRANDAO SWAP15 0x4C ADDRESS GT 0x29 0xCB 0xB9 0xCD MLOAD BALANCE 0x29 0xD7 DUP16 0xAE 0xF8 MSIZE 0xE2 SWAP2 PUSH5 0x736F6C6343 STOP ADDMOD XOR STOP CALLER "},"methodIdentifiers":{"battleCounter()":"a9b9be3f","battles(uint256)":"606d2e96","createBattle(address,uint256)":"c0726e91","declareWinner(uint256,address)":"e374b097","joinBattle(uint256)":"4a042f0d"}}}}}