{"contracts/AiBeastsBattle.sol":{"BattleBet":{"abi":[{"inputs":[{"internalType":"address","name":"_feeWallet","type":"address"}],"stateMutability":"nonpayable","type":"constructor"},{"inputs":[],"name":"battleCounter","outputs":[{"internalType":"uint256","name":"","type":"uint256"}],"stateMutability":"view","type":"function"},{"inputs":[{"internalType":"uint256","name":"","type":"uint256"}],"name":"battles","outputs":[{"internalType":"address","name":"player1","type":"address"},{"internalType":"address","name":"player2","type":"address"},{"internalType":"uint256","name":"stake","type":"uint256"},{"internalType":"bool","name":"player1Staked","type":"bool"},{"internalType":"bool","name":"player2Staked","type":"bool"},{"internalType":"address","name":"winner","type":"address"},{"internalType":"bool","name":"finished","type":"bool"}],"stateMutability":"view","type":"function"},{"inputs":[{"internalType":"uint256","name":"_battleId","type":"uint256"}],"name":"cancelBattle","outputs":[],"stateMutability":"nonpayable","type":"function"},{"inputs":[],"name":"createAndJoinBattle","outputs":[{"internalType":"uint256","name":"","type":"uint256"}],"stateMutability":"payable","type":"function"},{"inputs":[{"internalType":"address","name":"_player2","type":"address"},{"internalType":"uint256","name":"_stake","type":"uint256"}],"name":"createBattle","outputs":[{"internalType":"uint256","name":"","type":"uint256"}],"stateMutability":"nonpayable","type":"function"},{"inputs":[{"internalType":"uint256","name":"_battleId","type":"uint256"},{"internalType":"address","name":"_winner","type":"address"}],"name":"declareWinner","outputs":[],"stateMutability":"nonpayable","type":"function"},{"inputs":[{"internalType":"uint256","name":"_battleId","type":"uint256"}],"name":"joinBattle","outputs":[],"stateMutability":"payable","type":"function"},{"inputs":[{"internalType":"uint256","name":"_battleId","type":"uint256"}],"name":"joinExistingBattle","outputs":[],"stateMutability":"payable","type":"function"}],"evm":{"bytecode":{"linkReferences":{},"object":"60803461007f57601f610af938819003918201601f19168301916001600160401b038311848410176100845780849260209460405283398101031261007f57516001600160a01b0381169081900361007f57600a60045560018060a01b0319338160025416176002556003541617600355604051610a5e908161009b8239f35b600080fd5b634e487b7160e01b600052604160045260246000fdfe608060408181526004908136101561001657600080fd5b600092833560e01c908163046b54db146108af575080634a042f0d1461074d5780634c4c447e1461057d578063606d2e96146104fe578063a9b9be3f146104e1578063af42910014610428578063c0726e91146103af5763e374b0971461007c57600080fd5b346103ab57806003193601126103ab576024908135906001600160a01b038083168084036103a7578160025416330361033f57853587526020936001855283882090600382019081549060ff821680610332575b156102f157858260101c166102b05785845416851480156102a1575b156102605760029392917fffffffffffffffffff000000000000000000000000000000000000000000ffff75ffffffffffffffffffffffffffffffffffffffff00007601000000000000000000000000000000000000000000009360101b169116171790550154918260011b928084046002149015171561024e57865480840290848204148415171561023c57606490049081840393841161023c57888080938193600354165af161019c6109c7565b50156101fb578680809381935af16101b26109c7565b50156101bc578480f35b5162461bcd60e51b8152928301526016908201527f57696e6e6572207472616e73666572206661696c6564000000000000000000006044820152606490fd5b6064866013878787519362461bcd60e51b85528401528201527f466565207472616e73666572206661696c6564000000000000000000000000006044820152fd5b868960118a634e487b7160e01b835252fd5b8588601189634e487b7160e01b835252fd5b60648a600e8b8b8b519362461bcd60e51b85528401528201527f496e76616c69642077696e6e65720000000000000000000000000000000000006044820152fd5b508560018501541685146100ec565b60648a60178b8b8b519362461bcd60e51b85528401528201527f57696e6e657220616c7265616479206465636c617265640000000000000000006044820152fd5b60648a60178b8b8b519362461bcd60e51b85528401528201527f426f746820706c6179657273206d757374207374616b650000000000000000006044820152fd5b5060ff8260081c166100d0565b608486602587602087519362461bcd60e51b85528401528201527f4f6e6c7920746865206f776e65722063616e2063616c6c20746869732066756e60448201527f6374696f6e0000000000000000000000000000000000000000000000000000006064820152fd5b8680fd5b8280fd5b5090346103ab57816003193601126103ab57356001600160a01b0381168091036103ab57916020926103e18254610957565b8083558252600184528282209073ffffffffffffffffffffffffffffffffffffffff1990338284541617835560018301918254161790556002602435910155549051908152f35b50919060203660031901126104dd57803582526001602052828220906104536002830154341461097c565b60018201908154906001600160a01b03821661049a575073ffffffffffffffffffffffffffffffffffffffff191633179055600301805461ff001916610100179055905080f35b606490602087519162461bcd60e51b8352820152601e60248201527f426174746c6520616c72656164792068617320616e206f70706f6e656e7400006044820152fd5b5080fd5b8382346104dd57816003193601126104dd57602091549051908152f35b5090346103ab5760203660031901126103ab578160e09360ff92358152600160205220916001600160a01b038084541693816001820154169260036002830154920154938151968752602087015285015282821615156060850152828260081c16151560808501528160101c1660a084015260b01c16151560c0820152f35b50346103ab57602090816003193601126107495782358452600182528084206001600160a01b0380825416908133036106e157600183015416610678576003820180549260ff84161561063657879384938493600285940192848454945560ff191690555af16105eb6109c7565b50156105f5578380f35b60649350519162461bcd60e51b8352820152600d60248201527f526566756e64206661696c6564000000000000000000000000000000000000006044820152fd5b6064878787519162461bcd60e51b8352820152601260248201527f4e6f2066756e647320746f20726566756e6400000000000000000000000000006044820152fd5b505060849350519162461bcd60e51b8352820152602560248201527f43616e6e6f742063616e63656c3b20706c617965723220616c7265616479206a60448201527f6f696e65640000000000000000000000000000000000000000000000000000006064820152fd5b6084868686519162461bcd60e51b8352820152602360248201527f4f6e6c7920506c61796572312063616e2063616e63656c20746869732062617460448201527f746c6500000000000000000000000000000000000000000000000000000000006064820152fd5b8380fd5b5060203660031901126103ab578135835260016020528083206107756002820154341461097c565b6001600160a01b038082541633148091811561089f575b501561085c5760039190156107f957019182549160ff83166107b657505060ff1916600117905580f35b906020606492519162461bcd60e51b8352820152601660248201527f506c617965723120616c7265616479207374616b6564000000000000000000006044820152fd5b019182549160ff8360081c1661081957505061ff00191661010017905580f35b906020606492519162461bcd60e51b8352820152601660248201527f506c617965723220616c7265616479207374616b6564000000000000000000006044820152fd5b606484602085519162461bcd60e51b8352820152601160248201527f4e6f742061207061727469636970616e740000000000000000000000000000006044820152fd5b905060018301541633143861078c565b848092506003193601126104dd57341561091657602083836108d18154610957565b80825581526001835260038282203373ffffffffffffffffffffffffffffffffffffffff1982541617815534600282015501600160ff19825416179055549051908152f35b8060208562461bcd60e51b60649452820152601f60248201527f5374616b65206d7573742062652067726561746572207468616e207a65726f006044820152fd5b60001981146109665760010190565b634e487b7160e01b600052601160045260246000fd5b1561098357565b606460405162461bcd60e51b815260206004820152601760248201527f4d7573742073656e6420636f7272656374207374616b650000000000000000006044820152fd5b3d15610a235767ffffffffffffffff903d828111610a0d5760405192601f8201601f19908116603f0116840190811184821017610a0d5760405282523d6000602084013e565b634e487b7160e01b600052604160045260246000fd5b60609056fea26469706673582212206d7ed0bd210adfbeb08f0d1afdb6a610c582f048b95687f8121ed5b5f93b13a364736f6c63430008180033","opcodes":"PUSH1 0x80 CALLVALUE PUSH2 0x7F JUMPI PUSH1 0x1F PUSH2 0xAF9 CODESIZE DUP2 SWAP1 SUB SWAP2 DUP3 ADD PUSH1 0x1F NOT AND DUP4 ADD SWAP2 PUSH1 0x1 PUSH1 0x1 PUSH1 0x40 SHL SUB DUP4 GT DUP5 DUP5 LT OR PUSH2 0x84 JUMPI DUP1 DUP5 SWAP3 PUSH1 0x20 SWAP5 PUSH1 0x40 MSTORE DUP4 CODECOPY DUP2 ADD SUB SLT PUSH2 0x7F JUMPI MLOAD PUSH1 0x1 PUSH1 0x1 PUSH1 0xA0 SHL SUB DUP2 AND SWAP1 DUP2 SWAP1 SUB PUSH2 0x7F JUMPI PUSH1 0xA PUSH1 0x4 SSTORE PUSH1 0x1 DUP1 PUSH1 0xA0 SHL SUB NOT CALLER DUP2 PUSH1 0x2 SLOAD AND OR PUSH1 0x2 SSTORE PUSH1 0x3 SLOAD AND OR PUSH1 0x3 SSTORE PUSH1 0x40 MLOAD PUSH2 0xA5E SWAP1 DUP2 PUSH2 0x9B DUP3 CODECOPY RETURN JUMPDEST PUSH1 0x0 DUP1 REVERT JUMPDEST PUSH4 0x4E487B71 PUSH1 0xE0 SHL PUSH1 0x0 MSTORE PUSH1 0x41 PUSH1 0x4 MSTORE PUSH1 0x24 PUSH1 0x0 REVERT INVALID PUSH1 0x80 PUSH1 0x40 DUP2 DUP2 MSTORE PUSH1 0x4 SWAP1 DUP2 CALLDATASIZE LT ISZERO PUSH2 0x16 JUMPI PUSH1 0x0 DUP1 REVERT JUMPDEST PUSH1 0x0 SWAP3 DUP4 CALLDATALOAD PUSH1 0xE0 SHR SWAP1 DUP2 PUSH4 0x46B54DB EQ PUSH2 0x8AF JUMPI POP DUP1 PUSH4 0x4A042F0D EQ PUSH2 0x74D JUMPI DUP1 PUSH4 0x4C4C447E EQ PUSH2 0x57D JUMPI DUP1 PUSH4 0x606D2E96 EQ PUSH2 0x4FE JUMPI DUP1 PUSH4 0xA9B9BE3F EQ PUSH2 0x4E1 JUMPI DUP1 PUSH4 0xAF429100 EQ PUSH2 0x428 JUMPI DUP1 PUSH4 0xC0726E91 EQ PUSH2 0x3AF JUMPI PUSH4 0xE374B097 EQ PUSH2 0x7C JUMPI PUSH1 0x0 DUP1 REVERT JUMPDEST CALLVALUE PUSH2 0x3AB JUMPI DUP1 PUSH1 0x3 NOT CALLDATASIZE ADD SLT PUSH2 0x3AB JUMPI PUSH1 0x24 SWAP1 DUP2 CALLDATALOAD SWAP1 PUSH1 0x1 PUSH1 0x1 PUSH1 0xA0 SHL SUB DUP1 DUP4 AND DUP1 DUP5 SUB PUSH2 0x3A7 JUMPI DUP2 PUSH1 0x2 SLOAD AND CALLER SUB PUSH2 0x33F JUMPI DUP6 CALLDATALOAD DUP8 MSTORE PUSH1 0x20 SWAP4 PUSH1 0x1 DUP6 MSTORE DUP4 DUP9 KECCAK256 SWAP1 PUSH1 0x3 DUP3 ADD SWAP1 DUP2 SLOAD SWAP1 PUSH1 0xFF DUP3 AND DUP1 PUSH2 0x332 JUMPI JUMPDEST ISZERO PUSH2 0x2F1 JUMPI DUP6 DUP3 PUSH1 0x10 SHR AND PUSH2 0x2B0 JUMPI DUP6 DUP5 SLOAD AND DUP6 EQ DUP1 ISZERO PUSH2 0x2A1 JUMPI JUMPDEST ISZERO PUSH2 0x260 JUMPI PUSH1 0x2 SWAP4 SWAP3 SWAP2 PUSH32 0xFFFFFFFFFFFFFFFFFF000000000000000000000000000000000000000000FFFF PUSH22 0xFFFFFFFFFFFFFFFFFFFFFFFFFFFFFFFFFFFFFFFF0000 PUSH23 0x100000000000000000000000000000000000000000000 SWAP4 PUSH1 0x10 SHL AND SWAP2 AND OR OR SWAP1 SSTORE ADD SLOAD SWAP2 DUP3 PUSH1 0x1 SHL SWAP3 DUP1 DUP5 DIV PUSH1 0x2 EQ SWAP1 ISZERO OR ISZERO PUSH2 0x24E JUMPI DUP7 SLOAD DUP1 DUP5 MUL SWAP1 DUP5 DUP3 DIV EQ DUP5 ISZERO OR ISZERO PUSH2 0x23C JUMPI PUSH1 0x64 SWAP1 DIV SWAP1 DUP2 DUP5 SUB SWAP4 DUP5 GT PUSH2 0x23C JUMPI DUP9 DUP1 DUP1 SWAP4 DUP2 SWAP4 PUSH1 0x3 SLOAD AND GAS CALL PUSH2 0x19C PUSH2 0x9C7 JUMP JUMPDEST POP ISZERO PUSH2 0x1FB JUMPI DUP7 DUP1 DUP1 SWAP4 DUP2 SWAP4 GAS CALL PUSH2 0x1B2 PUSH2 0x9C7 JUMP JUMPDEST POP ISZERO PUSH2 0x1BC JUMPI DUP5 DUP1 RETURN JUMPDEST MLOAD PUSH3 0x461BCD PUSH1 0xE5 SHL DUP2 MSTORE SWAP3 DUP4 ADD MSTORE PUSH1 0x16 SWAP1 DUP3 ADD MSTORE PUSH32 0x57696E6E6572207472616E73666572206661696C656400000000000000000000 PUSH1 0x44 DUP3 ADD MSTORE PUSH1 0x64 SWAP1 REVERT JUMPDEST PUSH1 0x64 DUP7 PUSH1 0x13 DUP8 DUP8 DUP8 MLOAD SWAP4 PUSH3 0x461BCD PUSH1 0xE5 SHL DUP6 MSTORE DUP5 ADD MSTORE DUP3 ADD MSTORE PUSH32 0x466565207472616E73666572206661696C656400000000000000000000000000 PUSH1 0x44 DUP3 ADD MSTORE REVERT JUMPDEST DUP7 DUP10 PUSH1 0x11 DUP11 PUSH4 0x4E487B71 PUSH1 0xE0 SHL DUP4 MSTORE MSTORE REVERT JUMPDEST DUP6 DUP9 PUSH1 0x11 DUP10 PUSH4 0x4E487B71 PUSH1 0xE0 SHL DUP4 MSTORE MSTORE REVERT JUMPDEST PUSH1 0x64 DUP11 PUSH1 0xE DUP12 DUP12 DUP12 MLOAD SWAP4 PUSH3 0x461BCD PUSH1 0xE5 SHL DUP6 MSTORE DUP5 ADD MSTORE DUP3 ADD MSTORE PUSH32 0x496E76616C69642077696E6E6572000000000000000000000000000000000000 PUSH1 0x44 DUP3 ADD MSTORE REVERT JUMPDEST POP DUP6 PUSH1 0x1 DUP6 ADD SLOAD AND DUP6 EQ PUSH2 0xEC JUMP JUMPDEST PUSH1 0x64 DUP11 PUSH1 0x17 DUP12 DUP12 DUP12 MLOAD SWAP4 PUSH3 0x461BCD PUSH1 0xE5 SHL DUP6 MSTORE DUP5 ADD MSTORE DUP3 ADD MSTORE PUSH32 0x57696E6E657220616C7265616479206465636C61726564000000000000000000 PUSH1 0x44 DUP3 ADD MSTORE REVERT JUMPDEST PUSH1 0x64 DUP11 PUSH1 0x17 DUP12 DUP12 DUP12 MLOAD SWAP4 PUSH3 0x461BCD PUSH1 0xE5 SHL DUP6 MSTORE DUP5 ADD MSTORE DUP3 ADD MSTORE PUSH32 0x426F746820706C6179657273206D757374207374616B65000000000000000000 PUSH1 0x44 DUP3 ADD MSTORE REVERT JUMPDEST POP PUSH1 0xFF DUP3 PUSH1 0x8 SHR AND PUSH2 0xD0 JUMP JUMPDEST PUSH1 0x84 DUP7 PUSH1 0x25 DUP8 PUSH1 0x20 DUP8 MLOAD SWAP4 PUSH3 0x461BCD PUSH1 0xE5 SHL DUP6 MSTORE DUP5 ADD MSTORE DUP3 ADD MSTORE PUSH32 0x4F6E6C7920746865206F776E65722063616E2063616C6C20746869732066756E PUSH1 0x44 DUP3 ADD MSTORE PUSH32 0x6374696F6E000000000000000000000000000000000000000000000000000000 PUSH1 0x64 DUP3 ADD MSTORE REVERT JUMPDEST DUP7 DUP1 REVERT JUMPDEST DUP3 DUP1 REVERT JUMPDEST POP SWAP1 CALLVALUE PUSH2 0x3AB JUMPI DUP2 PUSH1 0x3 NOT CALLDATASIZE ADD SLT PUSH2 0x3AB JUMPI CALLDATALOAD PUSH1 0x1 PUSH1 0x1 PUSH1 0xA0 SHL SUB DUP2 AND DUP1 SWAP2 SUB PUSH2 0x3AB JUMPI SWAP2 PUSH1 0x20 SWAP3 PUSH2 0x3E1 DUP3 SLOAD PUSH2 0x957 JUMP JUMPDEST DUP1 DUP4 SSTORE DUP3 MSTORE PUSH1 0x1 DUP5 MSTORE DUP3 DUP3 KECCAK256 SWAP1 PUSH20 0xFFFFFFFFFFFFFFFFFFFFFFFFFFFFFFFFFFFFFFFF NOT SWAP1 CALLER DUP3 DUP5 SLOAD AND OR DUP4 SSTORE PUSH1 0x1 DUP4 ADD SWAP2 DUP3 SLOAD AND OR SWAP1 SSTORE PUSH1 0x2 PUSH1 0x24 CALLDATALOAD SWAP2 ADD SSTORE SLOAD SWAP1 MLOAD SWAP1 DUP2 MSTORE RETURN JUMPDEST POP SWAP2 SWAP1 PUSH1 0x20 CALLDATASIZE PUSH1 0x3 NOT ADD SLT PUSH2 0x4DD JUMPI DUP1 CALLDATALOAD DUP3 MSTORE PUSH1 0x1 PUSH1 0x20 MSTORE DUP3 DUP3 KECCAK256 SWAP1 PUSH2 0x453 PUSH1 0x2 DUP4 ADD SLOAD CALLVALUE EQ PUSH2 0x97C JUMP JUMPDEST PUSH1 0x1 DUP3 ADD SWAP1 DUP2 SLOAD SWAP1 PUSH1 0x1 PUSH1 0x1 PUSH1 0xA0 SHL SUB DUP3 AND PUSH2 0x49A JUMPI POP PUSH20 0xFFFFFFFFFFFFFFFFFFFFFFFFFFFFFFFFFFFFFFFF NOT AND CALLER OR SWAP1 SSTORE PUSH1 0x3 ADD DUP1 SLOAD PUSH2 0xFF00 NOT AND PUSH2 0x100 OR SWAP1 SSTORE SWAP1 POP DUP1 RETURN JUMPDEST PUSH1 0x64 SWAP1 PUSH1 0x20 DUP8 MLOAD SWAP2 PUSH3 0x461BCD PUSH1 0xE5 SHL DUP4 MSTORE DUP3 ADD MSTORE PUSH1 0x1E PUSH1 0x24 DUP3 ADD MSTORE PUSH32 0x426174746C6520616C72656164792068617320616E206F70706F6E656E740000 PUSH1 0x44 DUP3 ADD MSTORE REVERT JUMPDEST POP DUP1 REVERT JUMPDEST DUP4 DUP3 CALLVALUE PUSH2 0x4DD JUMPI DUP2 PUSH1 0x3 NOT CALLDATASIZE ADD SLT PUSH2 0x4DD JUMPI PUSH1 0x20 SWAP2 SLOAD SWAP1 MLOAD SWAP1 DUP2 MSTORE RETURN JUMPDEST POP SWAP1 CALLVALUE PUSH2 0x3AB JUMPI PUSH1 0x20 CALLDATASIZE PUSH1 0x3 NOT ADD SLT PUSH2 0x3AB JUMPI DUP2 PUSH1 0xE0 SWAP4 PUSH1 0xFF SWAP3 CALLDATALOAD DUP2 MSTORE PUSH1 0x1 PUSH1 0x20 MSTORE KECCAK256 SWAP2 PUSH1 0x1 PUSH1 0x1 PUSH1 0xA0 SHL SUB DUP1 DUP5 SLOAD AND SWAP4 DUP2 PUSH1 0x1 DUP3 ADD SLOAD AND SWAP3 PUSH1 0x3 PUSH1 0x2 DUP4 ADD SLOAD SWAP3 ADD SLOAD SWAP4 DUP2 MLOAD SWAP7 DUP8 MSTORE PUSH1 0x20 DUP8 ADD MSTORE DUP6 ADD MSTORE DUP3 DUP3 AND ISZERO ISZERO PUSH1 0x60 DUP6 ADD MSTORE DUP3 DUP3 PUSH1 0x8 SHR AND ISZERO ISZERO PUSH1 0x80 DUP6 ADD MSTORE DUP2 PUSH1 0x10 SHR AND PUSH1 0xA0 DUP5 ADD MSTORE PUSH1 0xB0 SHR AND ISZERO ISZERO PUSH1 0xC0 DUP3 ADD MSTORE RETURN JUMPDEST POP CALLVALUE PUSH2 0x3AB JUMPI PUSH1 0x20 SWAP1 DUP2 PUSH1 0x3 NOT CALLDATASIZE ADD SLT PUSH2 0x749 JUMPI DUP3 CALLDATALOAD DUP5 MSTORE PUSH1 0x1 DUP3 MSTORE DUP1 DUP5 KECCAK256 PUSH1 0x1 PUSH1 0x1 PUSH1 0xA0 SHL SUB DUP1 DUP3 SLOAD AND SWAP1 DUP2 CALLER SUB PUSH2 0x6E1 JUMPI PUSH1 0x1 DUP4 ADD SLOAD AND PUSH2 0x678 JUMPI PUSH1 0x3 DUP3 ADD DUP1 SLOAD SWAP3 PUSH1 0xFF DUP5 AND ISZERO PUSH2 0x636 JUMPI DUP8 SWAP4 DUP5 SWAP4 DUP5 SWAP4 PUSH1 0x2 DUP6 SWAP5 ADD SWAP3 DUP5 DUP5 SLOAD SWAP5 SSTORE PUSH1 0xFF NOT AND SWAP1 SSTORE GAS CALL PUSH2 0x5EB PUSH2 0x9C7 JUMP JUMPDEST POP ISZERO PUSH2 0x5F5 JUMPI DUP4 DUP1 RETURN JUMPDEST PUSH1 0x64 SWAP4 POP MLOAD SWAP2 PUSH3 0x461BCD PUSH1 0xE5 SHL DUP4 MSTORE DUP3 ADD MSTORE PUSH1 0xD PUSH1 0x24 DUP3 ADD MSTORE PUSH32 0x526566756E64206661696C656400000000000000000000000000000000000000 PUSH1 0x44 DUP3 ADD MSTORE REVERT JUMPDEST PUSH1 0x64 DUP8 DUP8 DUP8 MLOAD SWAP2 PUSH3 0x461BCD PUSH1 0xE5 SHL DUP4 MSTORE DUP3 ADD MSTORE PUSH1 0x12 PUSH1 0x24 DUP3 ADD MSTORE PUSH32 0x4E6F2066756E647320746F20726566756E640000000000000000000000000000 PUSH1 0x44 DUP3 ADD MSTORE REVERT JUMPDEST POP POP PUSH1 0x84 SWAP4 POP MLOAD SWAP2 PUSH3 0x461BCD PUSH1 0xE5 SHL DUP4 MSTORE DUP3 ADD MSTORE PUSH1 0x25 PUSH1 0x24 DUP3 ADD MSTORE PUSH32 0x43616E6E6F742063616E63656C3B20706C617965723220616C7265616479206A PUSH1 0x44 DUP3 ADD MSTORE PUSH32 0x6F696E6564000000000000000000000000000000000000000000000000000000 PUSH1 0x64 DUP3 ADD MSTORE REVERT JUMPDEST PUSH1 0x84 DUP7 DUP7 DUP7 MLOAD SWAP2 PUSH3 0x461BCD PUSH1 0xE5 SHL DUP4 MSTORE DUP3 ADD MSTORE PUSH1 0x23 PUSH1 0x24 DUP3 ADD MSTORE PUSH32 0x4F6E6C7920506C61796572312063616E2063616E63656C207468697320626174 PUSH1 0x44 DUP3 ADD MSTORE PUSH32 0x746C650000000000000000000000000000000000000000000000000000000000 PUSH1 0x64 DUP3 ADD MSTORE REVERT JUMPDEST DUP4 DUP1 REVERT JUMPDEST POP PUSH1 0x20 CALLDATASIZE PUSH1 0x3 NOT ADD SLT PUSH2 0x3AB JUMPI DUP2 CALLDATALOAD DUP4 MSTORE PUSH1 0x1 PUSH1 0x20 MSTORE DUP1 DUP4 KECCAK256 PUSH2 0x775 PUSH1 0x2 DUP3 ADD SLOAD CALLVALUE EQ PUSH2 0x97C JUMP JUMPDEST PUSH1 0x1 PUSH1 0x1 PUSH1 0xA0 SHL SUB DUP1 DUP3 SLOAD AND CALLER EQ DUP1 SWAP2 DUP2 ISZERO PUSH2 0x89F JUMPI JUMPDEST POP ISZERO PUSH2 0x85C JUMPI PUSH1 0x3 SWAP2 SWAP1 ISZERO PUSH2 0x7F9 JUMPI ADD SWAP2 DUP3 SLOAD SWAP2 PUSH1 0xFF DUP4 AND PUSH2 0x7B6 JUMPI POP POP PUSH1 0xFF NOT AND PUSH1 0x1 OR SWAP1 SSTORE DUP1 RETURN JUMPDEST SWAP1 PUSH1 0x20 PUSH1 0x64 SWAP3 MLOAD SWAP2 PUSH3 0x461BCD PUSH1 0xE5 SHL DUP4 MSTORE DUP3 ADD MSTORE PUSH1 0x16 PUSH1 0x24 DUP3 ADD MSTORE PUSH32 0x506C617965723120616C7265616479207374616B656400000000000000000000 PUSH1 0x44 DUP3 ADD MSTORE REVERT JUMPDEST ADD SWAP2 DUP3 SLOAD SWAP2 PUSH1 0xFF DUP4 PUSH1 0x8 SHR AND PUSH2 0x819 JUMPI POP POP PUSH2 0xFF00 NOT AND PUSH2 0x100 OR SWAP1 SSTORE DUP1 RETURN JUMPDEST SWAP1 PUSH1 0x20 PUSH1 0x64 SWAP3 MLOAD SWAP2 PUSH3 0x461BCD PUSH1 0xE5 SHL DUP4 MSTORE DUP3 ADD MSTORE PUSH1 0x16 PUSH1 0x24 DUP3 ADD MSTORE PUSH32 0x506C617965723220616C7265616479207374616B656400000000000000000000 PUSH1 0x44 DUP3 ADD MSTORE REVERT JUMPDEST PUSH1 0x64 DUP5 PUSH1 0x20 DUP6 MLOAD SWAP2 PUSH3 0x461BCD PUSH1 0xE5 SHL DUP4 MSTORE DUP3 ADD MSTORE PUSH1 0x11 PUSH1 0x24 DUP3 ADD MSTORE PUSH32 0x4E6F742061207061727469636970616E74000000000000000000000000000000 PUSH1 0x44 DUP3 ADD MSTORE REVERT JUMPDEST SWAP1 POP PUSH1 0x1 DUP4 ADD SLOAD AND CALLER EQ CODESIZE PUSH2 0x78C JUMP JUMPDEST DUP5 DUP1 SWAP3 POP PUSH1 0x3 NOT CALLDATASIZE ADD SLT PUSH2 0x4DD JUMPI CALLVALUE ISZERO PUSH2 0x916 JUMPI PUSH1 0x20 DUP4 DUP4 PUSH2 0x8D1 DUP2 SLOAD PUSH2 0x957 JUMP JUMPDEST DUP1 DUP3 SSTORE DUP2 MSTORE PUSH1 0x1 DUP4 MSTORE PUSH1 0x3 DUP3 DUP3 KECCAK256 CALLER PUSH20 0xFFFFFFFFFFFFFFFFFFFFFFFFFFFFFFFFFFFFFFFF NOT DUP3 SLOAD AND OR DUP2 SSTORE CALLVALUE PUSH1 0x2 DUP3 ADD SSTORE ADD PUSH1 0x1 PUSH1 0xFF NOT DUP3 SLOAD AND OR SWAP1 SSTORE SLOAD SWAP1 MLOAD SWAP1 DUP2 MSTORE RETURN JUMPDEST DUP1 PUSH1 0x20 DUP6 PUSH3 0x461BCD PUSH1 0xE5 SHL PUSH1 0x64 SWAP5 MSTORE DUP3 ADD MSTORE PUSH1 0x1F PUSH1 0x24 DUP3 ADD MSTORE PUSH32 0x5374616B65206D7573742062652067726561746572207468616E207A65726F00 PUSH1 0x44 DUP3 ADD MSTORE REVERT JUMPDEST PUSH1 0x0 NOT DUP2 EQ PUSH2 0x966 JUMPI PUSH1 0x1 ADD SWAP1 JUMP JUMPDEST PUSH4 0x4E487B71 PUSH1 0xE0 SHL PUSH1 0x0 MSTORE PUSH1 0x11 PUSH1 0x4 MSTORE PUSH1 0x24 PUSH1 0x0 REVERT JUMPDEST ISZERO PUSH2 0x983 JUMPI JUMP JUMPDEST PUSH1 0x64 PUSH1 0x40 MLOAD PUSH3 0x461BCD PUSH1 0xE5 SHL DUP2 MSTORE PUSH1 0x20 PUSH1 0x4 DUP3 ADD MSTORE PUSH1 0x17 PUSH1 0x24 DUP3 ADD MSTORE PUSH32 0x4D7573742073656E6420636F7272656374207374616B65000000000000000000 PUSH1 0x44 DUP3 ADD MSTORE REVERT JUMPDEST RETURNDATASIZE ISZERO PUSH2 0xA23 JUMPI PUSH8 0xFFFFFFFFFFFFFFFF SWAP1 RETURNDATASIZE DUP3 DUP2 GT PUSH2 0xA0D JUMPI PUSH1 0x40 MLOAD SWAP3 PUSH1 0x1F DUP3 ADD PUSH1 0x1F NOT SWAP1 DUP2 AND PUSH1 0x3F ADD AND DUP5 ADD SWAP1 DUP2 GT DUP5 DUP3 LT OR PUSH2 0xA0D JUMPI PUSH1 0x40 MSTORE DUP3 MSTORE RETURNDATASIZE PUSH1 0x0 PUSH1 0x20 DUP5 ADD RETURNDATACOPY JUMP JUMPDEST PUSH4 0x4E487B71 PUSH1 0xE0 SHL PUSH1 0x0 MSTORE PUSH1 0x41 PUSH1 0x4 MSTORE PUSH1 0x24 PUSH1 0x0 REVERT JUMPDEST PUSH1 0x60 SWAP1 JUMP INVALID LOG2 PUSH5 0x6970667358 0x22 SLT KECCAK256 PUSH14 0x7ED0BD210ADFBEB08F0D1AFDB6A6 LT 0xC5 DUP3 CREATE BASEFEE 0xB9 JUMP DUP8 0xF8 SLT 0x1E 0xD5 0xB5 0xF9 EXTCODESIZE SGT LOG3 PUSH5 0x736F6C6343 STOP ADDMOD XOR STOP CALLER "},"methodIdentifiers":{"battleCounter()":"a9b9be3f","battles(uint256)":"606d2e96","cancelBattle(uint256)":"4c4c447e","createAndJoinBattle()":"046b54db","createBattle(address,uint256)":"c0726e91","declareWinner(uint256,address)":"e374b097","joinBattle(uint256)":"4a042f0d","joinExistingBattle(uint256)":"af429100"}}}}}