{"contracts/AiBeastsBattle2.sol":{"BattleBet2":{"abi":[{"inputs":[],"stateMutability":"nonpayable","type":"constructor"},{"inputs":[],"name":"battleCounter","outputs":[{"internalType":"uint256","name":"","type":"uint256"}],"stateMutability":"view","type":"function"},{"inputs":[{"internalType":"uint256","name":"","type":"uint256"}],"name":"battles","outputs":[{"internalType":"address","name":"player1","type":"address"},{"internalType":"address","name":"player2","type":"address"},{"internalType":"uint256","name":"stake","type":"uint256"},{"internalType":"bool","name":"player1Staked","type":"bool"},{"internalType":"bool","name":"player2Staked","type":"bool"},{"internalType":"address","name":"winner","type":"address"},{"internalType":"bool","name":"finished","type":"bool"}],"stateMutability":"view","type":"function"},{"inputs":[{"internalType":"uint256","name":"_stake","type":"uint256"}],"name":"createBattle","outputs":[{"internalType":"uint256","name":"","type":"uint256"}],"stateMutability":"nonpayable","type":"function"},{"inputs":[{"internalType":"uint256","name":"_battleId","type":"uint256"},{"internalType":"address","name":"_winner","type":"address"}],"name":"declareWinner","outputs":[],"stateMutability":"nonpayable","type":"function"},{"inputs":[{"internalType":"uint256","name":"_battleId","type":"uint256"}],"name":"joinBattle","outputs":[],"stateMutability":"payable","type":"function"},{"inputs":[],"name":"owner","outputs":[{"internalType":"address","name":"","type":"address"}],"stateMutability":"view","type":"function"}],"evm":{"bytecode":{"linkReferences":{},"object":"6080806040523461002857600280546001600160a01b031916331790556106c2908161002e8239f35b600080fdfe608060408181526004908136101561001657600080fd5b600092833560e01c9081634a042f0d146104aa57508063606d2e961461041e5780638da5cb5b146103e957806394d44f1214610376578063a9b9be3f146103555763e374b0971461006657600080fd5b3461035157806003193601126103515760249073ffffffffffffffffffffffffffffffffffffffff90823582811680820361034d578360025416330361030b57853587526020936001855283882091600383019182549160ff8316806102fe575b156102bd5760ff8360b01c1661027c5781855416811491821561026c575b50501561022b577fffffffffffffffffff000000000000000000000000000000000000000000ffff16601084901b75ffffffffffffffffffffffffffffffffffffffff00001617760100000000000000000000000000000000000000000000179055600290810154600181901b92918115918404141715610219578680809381935af13d156102145767ffffffffffffffff3d81811161020257835191601f8201601f19908116603f01168301908111838210176101f0578452815286843d92013e5b156101b1578480f35b5162461bcd60e51b8152928301526019908201527f5472616e7366657220746f2077696e6e6572206661696c6564000000000000006044820152606490fd5b868960418a634e487b7160e01b835252fd5b8588604189634e487b7160e01b835252fd5b6101a8565b8487601188634e487b7160e01b835252fd5b606488600e898989519362461bcd60e51b85528401528201527f496e76616c69642077696e6e65720000000000000000000000000000000000006044820152fd5b60018601541614905038806100e5565b60648a60178b8b8b519362461bcd60e51b85528401528201527f426174746c6520616c72656164792066696e69736865640000000000000000006044820152fd5b60648a60178b8b8b519362461bcd60e51b85528401528201527f426f746820706c6179657273206d757374207374616b650000000000000000006044820152fd5b5060ff8360081c166100c7565b606486600d87602087519362461bcd60e51b85528401528201527f4e6f7420746865206f776e6572000000000000000000000000000000000000006044820152fd5b8680fd5b8280fd5b838234610372578160031936011261037257602091549051908152f35b5080fd5b5082346103e65760203660031901126103e657805460001981146103d357926001602094018083558252600184526002838320913373ffffffffffffffffffffffffffffffffffffffff1984541617835535910155549051908152f35b602482601186634e487b7160e01b835252fd5b80fd5b83823461037257816003193601126103725760209073ffffffffffffffffffffffffffffffffffffffff600254169051908152f35b509034610351576020366003190112610351578160e09360ff923581526001602052209173ffffffffffffffffffffffffffffffffffffffff8084541693816001820154169260036002830154920154938151968752602087015285015282821615156060850152828260081c16151560808501528160101c1660a084015260b01c16151560c0820152f35b6020939150366003190184136106885781358552600184528285209060028201543403610648575060018101805473ffffffffffffffffffffffffffffffffffffffff9081811615610627575b508083541633149081928215610619575b5050156105d757600391901561057557019283549260ff84166105345750505060ff1916600117905580f35b60649350519162461bcd60e51b8352820152601660248201527f506c617965723120616c7265616479207374616b6564000000000000000000006044820152fd5b019283549260ff8460081c166105965750505061ff00191661010017905580f35b60649350519162461bcd60e51b8352820152601660248201527f506c617965723220616c7265616479207374616b6564000000000000000000006044820152fd5b6064838686519162461bcd60e51b8352820152601160248201527f4e6f742061207061727469636970616e740000000000000000000000000000006044820152fd5b909150541633143880610508565b73ffffffffffffffffffffffffffffffffffffffff191633178255386104f7565b80858462461bcd60e51b60649452820152601760248201527f4d7573742073656e6420636f7272656374207374616b650000000000000000006044820152fd5b8480fdfea26469706673582212203845953fc82d314af59de558111a8c2a26d0c639baa1f81057920aa2f194656a64736f6c63430008180033","opcodes":"PUSH1 0x80 DUP1 PUSH1 0x40 MSTORE CALLVALUE PUSH2 0x28 JUMPI PUSH1 0x2 DUP1 SLOAD PUSH1 0x1 PUSH1 0x1 PUSH1 0xA0 SHL SUB NOT AND CALLER OR SWAP1 SSTORE PUSH2 0x6C2 SWAP1 DUP2 PUSH2 0x2E DUP3 CODECOPY RETURN JUMPDEST PUSH1 0x0 DUP1 REVERT INVALID PUSH1 0x80 PUSH1 0x40 DUP2 DUP2 MSTORE PUSH1 0x4 SWAP1 DUP2 CALLDATASIZE LT ISZERO PUSH2 0x16 JUMPI PUSH1 0x0 DUP1 REVERT JUMPDEST PUSH1 0x0 SWAP3 DUP4 CALLDATALOAD PUSH1 0xE0 SHR SWAP1 DUP2 PUSH4 0x4A042F0D EQ PUSH2 0x4AA JUMPI POP DUP1 PUSH4 0x606D2E96 EQ PUSH2 0x41E JUMPI DUP1 PUSH4 0x8DA5CB5B EQ PUSH2 0x3E9 JUMPI DUP1 PUSH4 0x94D44F12 EQ PUSH2 0x376 JUMPI DUP1 PUSH4 0xA9B9BE3F EQ PUSH2 0x355 JUMPI PUSH4 0xE374B097 EQ PUSH2 0x66 JUMPI PUSH1 0x0 DUP1 REVERT JUMPDEST CALLVALUE PUSH2 0x351 JUMPI DUP1 PUSH1 0x3 NOT CALLDATASIZE ADD SLT PUSH2 0x351 JUMPI PUSH1 0x24 SWAP1 PUSH20 0xFFFFFFFFFFFFFFFFFFFFFFFFFFFFFFFFFFFFFFFF SWAP1 DUP3 CALLDATALOAD DUP3 DUP2 AND DUP1 DUP3 SUB PUSH2 0x34D JUMPI DUP4 PUSH1 0x2 SLOAD AND CALLER SUB PUSH2 0x30B JUMPI DUP6 CALLDATALOAD DUP8 MSTORE PUSH1 0x20 SWAP4 PUSH1 0x1 DUP6 MSTORE DUP4 DUP9 KECCAK256 SWAP2 PUSH1 0x3 DUP4 ADD SWAP2 DUP3 SLOAD SWAP2 PUSH1 0xFF DUP4 AND DUP1 PUSH2 0x2FE JUMPI JUMPDEST ISZERO PUSH2 0x2BD JUMPI PUSH1 0xFF DUP4 PUSH1 0xB0 SHR AND PUSH2 0x27C JUMPI DUP2 DUP6 SLOAD AND DUP2 EQ SWAP2 DUP3 ISZERO PUSH2 0x26C JUMPI JUMPDEST POP POP ISZERO PUSH2 0x22B JUMPI PUSH32 0xFFFFFFFFFFFFFFFFFF000000000000000000000000000000000000000000FFFF AND PUSH1 0x10 DUP5 SWAP1 SHL PUSH22 0xFFFFFFFFFFFFFFFFFFFFFFFFFFFFFFFFFFFFFFFF0000 AND OR PUSH23 0x100000000000000000000000000000000000000000000 OR SWAP1 SSTORE PUSH1 0x2 SWAP1 DUP2 ADD SLOAD PUSH1 0x1 DUP2 SWAP1 SHL SWAP3 SWAP2 DUP2 ISZERO SWAP2 DUP5 DIV EQ OR ISZERO PUSH2 0x219 JUMPI DUP7 DUP1 DUP1 SWAP4 DUP2 SWAP4 GAS CALL RETURNDATASIZE ISZERO PUSH2 0x214 JUMPI PUSH8 0xFFFFFFFFFFFFFFFF RETURNDATASIZE DUP2 DUP2 GT PUSH2 0x202 JUMPI DUP4 MLOAD SWAP2 PUSH1 0x1F DUP3 ADD PUSH1 0x1F NOT SWAP1 DUP2 AND PUSH1 0x3F ADD AND DUP4 ADD SWAP1 DUP2 GT DUP4 DUP3 LT OR PUSH2 0x1F0 JUMPI DUP5 MSTORE DUP2 MSTORE DUP7 DUP5 RETURNDATASIZE SWAP3 ADD RETURNDATACOPY JUMPDEST ISZERO PUSH2 0x1B1 JUMPI DUP5 DUP1 RETURN JUMPDEST MLOAD PUSH3 0x461BCD PUSH1 0xE5 SHL DUP2 MSTORE SWAP3 DUP4 ADD MSTORE PUSH1 0x19 SWAP1 DUP3 ADD MSTORE PUSH32 0x5472616E7366657220746F2077696E6E6572206661696C656400000000000000 PUSH1 0x44 DUP3 ADD MSTORE PUSH1 0x64 SWAP1 REVERT JUMPDEST DUP7 DUP10 PUSH1 0x41 DUP11 PUSH4 0x4E487B71 PUSH1 0xE0 SHL DUP4 MSTORE MSTORE REVERT JUMPDEST DUP6 DUP9 PUSH1 0x41 DUP10 PUSH4 0x4E487B71 PUSH1 0xE0 SHL DUP4 MSTORE MSTORE REVERT JUMPDEST PUSH2 0x1A8 JUMP JUMPDEST DUP5 DUP8 PUSH1 0x11 DUP9 PUSH4 0x4E487B71 PUSH1 0xE0 SHL DUP4 MSTORE MSTORE REVERT JUMPDEST PUSH1 0x64 DUP9 PUSH1 0xE DUP10 DUP10 DUP10 MLOAD SWAP4 PUSH3 0x461BCD PUSH1 0xE5 SHL DUP6 MSTORE DUP5 ADD MSTORE DUP3 ADD MSTORE PUSH32 0x496E76616C69642077696E6E6572000000000000000000000000000000000000 PUSH1 0x44 DUP3 ADD MSTORE REVERT JUMPDEST PUSH1 0x1 DUP7 ADD SLOAD AND EQ SWAP1 POP CODESIZE DUP1 PUSH2 0xE5 JUMP JUMPDEST PUSH1 0x64 DUP11 PUSH1 0x17 DUP12 DUP12 DUP12 MLOAD SWAP4 PUSH3 0x461BCD PUSH1 0xE5 SHL DUP6 MSTORE DUP5 ADD MSTORE DUP3 ADD MSTORE PUSH32 0x426174746C6520616C72656164792066696E6973686564000000000000000000 PUSH1 0x44 DUP3 ADD MSTORE REVERT JUMPDEST PUSH1 0x64 DUP11 PUSH1 0x17 DUP12 DUP12 DUP12 MLOAD SWAP4 PUSH3 0x461BCD PUSH1 0xE5 SHL DUP6 MSTORE DUP5 ADD MSTORE DUP3 ADD MSTORE PUSH32 0x426F746820706C6179657273206D757374207374616B65000000000000000000 PUSH1 0x44 DUP3 ADD MSTORE REVERT JUMPDEST POP PUSH1 0xFF DUP4 PUSH1 0x8 SHR AND PUSH2 0xC7 JUMP JUMPDEST PUSH1 0x64 DUP7 PUSH1 0xD DUP8 PUSH1 0x20 DUP8 MLOAD SWAP4 PUSH3 0x461BCD PUSH1 0xE5 SHL DUP6 MSTORE DUP5 ADD MSTORE DUP3 ADD MSTORE PUSH32 0x4E6F7420746865206F776E657200000000000000000000000000000000000000 PUSH1 0x44 DUP3 ADD MSTORE REVERT JUMPDEST DUP7 DUP1 REVERT JUMPDEST DUP3 DUP1 REVERT JUMPDEST DUP4 DUP3 CALLVALUE PUSH2 0x372 JUMPI DUP2 PUSH1 0x3 NOT CALLDATASIZE ADD SLT PUSH2 0x372 JUMPI PUSH1 0x20 SWAP2 SLOAD SWAP1 MLOAD SWAP1 DUP2 MSTORE RETURN JUMPDEST POP DUP1 REVERT JUMPDEST POP DUP3 CALLVALUE PUSH2 0x3E6 JUMPI PUSH1 0x20 CALLDATASIZE PUSH1 0x3 NOT ADD SLT PUSH2 0x3E6 JUMPI DUP1 SLOAD PUSH1 0x0 NOT DUP2 EQ PUSH2 0x3D3 JUMPI SWAP3 PUSH1 0x1 PUSH1 0x20 SWAP5 ADD DUP1 DUP4 SSTORE DUP3 MSTORE PUSH1 0x1 DUP5 MSTORE PUSH1 0x2 DUP4 DUP4 KECCAK256 SWAP2 CALLER PUSH20 0xFFFFFFFFFFFFFFFFFFFFFFFFFFFFFFFFFFFFFFFF NOT DUP5 SLOAD AND OR DUP4 SSTORE CALLDATALOAD SWAP2 ADD SSTORE SLOAD SWAP1 MLOAD SWAP1 DUP2 MSTORE RETURN JUMPDEST PUSH1 0x24 DUP3 PUSH1 0x11 DUP7 PUSH4 0x4E487B71 PUSH1 0xE0 SHL DUP4 MSTORE MSTORE REVERT JUMPDEST DUP1 REVERT JUMPDEST DUP4 DUP3 CALLVALUE PUSH2 0x372 JUMPI DUP2 PUSH1 0x3 NOT CALLDATASIZE ADD SLT PUSH2 0x372 JUMPI PUSH1 0x20 SWAP1 PUSH20 0xFFFFFFFFFFFFFFFFFFFFFFFFFFFFFFFFFFFFFFFF PUSH1 0x2 SLOAD AND SWAP1 MLOAD SWAP1 DUP2 MSTORE RETURN JUMPDEST POP SWAP1 CALLVALUE PUSH2 0x351 JUMPI PUSH1 0x20 CALLDATASIZE PUSH1 0x3 NOT ADD SLT PUSH2 0x351 JUMPI DUP2 PUSH1 0xE0 SWAP4 PUSH1 0xFF SWAP3 CALLDATALOAD DUP2 MSTORE PUSH1 0x1 PUSH1 0x20 MSTORE KECCAK256 SWAP2 PUSH20 0xFFFFFFFFFFFFFFFFFFFFFFFFFFFFFFFFFFFFFFFF DUP1 DUP5 SLOAD AND SWAP4 DUP2 PUSH1 0x1 DUP3 ADD SLOAD AND SWAP3 PUSH1 0x3 PUSH1 0x2 DUP4 ADD SLOAD SWAP3 ADD SLOAD SWAP4 DUP2 MLOAD SWAP7 DUP8 MSTORE PUSH1 0x20 DUP8 ADD MSTORE DUP6 ADD MSTORE DUP3 DUP3 AND ISZERO ISZERO PUSH1 0x60 DUP6 ADD MSTORE DUP3 DUP3 PUSH1 0x8 SHR AND ISZERO ISZERO PUSH1 0x80 DUP6 ADD MSTORE DUP2 PUSH1 0x10 SHR AND PUSH1 0xA0 DUP5 ADD MSTORE PUSH1 0xB0 SHR AND ISZERO ISZERO PUSH1 0xC0 DUP3 ADD MSTORE RETURN JUMPDEST PUSH1 0x20 SWAP4 SWAP2 POP CALLDATASIZE PUSH1 0x3 NOT ADD DUP5 SGT PUSH2 0x688 JUMPI DUP2 CALLDATALOAD DUP6 MSTORE PUSH1 0x1 DUP5 MSTORE DUP3 DUP6 KECCAK256 SWAP1 PUSH1 0x2 DUP3 ADD SLOAD CALLVALUE SUB PUSH2 0x648 JUMPI POP PUSH1 0x1 DUP2 ADD DUP1 SLOAD PUSH20 0xFFFFFFFFFFFFFFFFFFFFFFFFFFFFFFFFFFFFFFFF SWAP1 DUP2 DUP2 AND ISZERO PUSH2 0x627 JUMPI JUMPDEST POP DUP1 DUP4 SLOAD AND CALLER EQ SWAP1 DUP2 SWAP3 DUP3 ISZERO PUSH2 0x619 JUMPI JUMPDEST POP POP ISZERO PUSH2 0x5D7 JUMPI PUSH1 0x3 SWAP2 SWAP1 ISZERO PUSH2 0x575 JUMPI ADD SWAP3 DUP4 SLOAD SWAP3 PUSH1 0xFF DUP5 AND PUSH2 0x534 JUMPI POP POP POP PUSH1 0xFF NOT AND PUSH1 0x1 OR SWAP1 SSTORE DUP1 RETURN JUMPDEST PUSH1 0x64 SWAP4 POP MLOAD SWAP2 PUSH3 0x461BCD PUSH1 0xE5 SHL DUP4 MSTORE DUP3 ADD MSTORE PUSH1 0x16 PUSH1 0x24 DUP3 ADD MSTORE PUSH32 0x506C617965723120616C7265616479207374616B656400000000000000000000 PUSH1 0x44 DUP3 ADD MSTORE REVERT JUMPDEST ADD SWAP3 DUP4 SLOAD SWAP3 PUSH1 0xFF DUP5 PUSH1 0x8 SHR AND PUSH2 0x596 JUMPI POP POP POP PUSH2 0xFF00 NOT AND PUSH2 0x100 OR SWAP1 SSTORE DUP1 RETURN JUMPDEST PUSH1 0x64 SWAP4 POP MLOAD SWAP2 PUSH3 0x461BCD PUSH1 0xE5 SHL DUP4 MSTORE DUP3 ADD MSTORE PUSH1 0x16 PUSH1 0x24 DUP3 ADD MSTORE PUSH32 0x506C617965723220616C7265616479207374616B656400000000000000000000 PUSH1 0x44 DUP3 ADD MSTORE REVERT JUMPDEST PUSH1 0x64 DUP4 DUP7 DUP7 MLOAD SWAP2 PUSH3 0x461BCD PUSH1 0xE5 SHL DUP4 MSTORE DUP3 ADD MSTORE PUSH1 0x11 PUSH1 0x24 DUP3 ADD MSTORE PUSH32 0x4E6F742061207061727469636970616E74000000000000000000000000000000 PUSH1 0x44 DUP3 ADD MSTORE REVERT JUMPDEST SWAP1 SWAP2 POP SLOAD AND CALLER EQ CODESIZE DUP1 PUSH2 0x508 JUMP JUMPDEST PUSH20 0xFFFFFFFFFFFFFFFFFFFFFFFFFFFFFFFFFFFFFFFF NOT AND CALLER OR DUP3 SSTORE CODESIZE PUSH2 0x4F7 JUMP JUMPDEST DUP1 DUP6 DUP5 PUSH3 0x461BCD PUSH1 0xE5 SHL PUSH1 0x64 SWAP5 MSTORE DUP3 ADD MSTORE PUSH1 0x17 PUSH1 0x24 DUP3 ADD MSTORE PUSH32 0x4D7573742073656E6420636F7272656374207374616B65000000000000000000 PUSH1 0x44 DUP3 ADD MSTORE REVERT JUMPDEST DUP5 DUP1 REVERT INVALID LOG2 PUSH5 0x6970667358 0x22 SLT KECCAK256 CODESIZE GASLIMIT SWAP6 EXTCODEHASH 0xC8 0x2D BALANCE BLOBBASEFEE CREATE2 SWAP14 0xE5 PC GT BYTE DUP13 0x2A 0x26 0xD0 0xC6 CODECOPY 0xBA LOG1 0xF8 LT JUMPI SWAP3 EXP LOG2 CALL SWAP5 PUSH6 0x6A64736F6C63 NUMBER STOP ADDMOD XOR STOP CALLER "},"methodIdentifiers":{"battleCounter()":"a9b9be3f","battles(uint256)":"606d2e96","createBattle(uint256)":"94d44f12","declareWinner(uint256,address)":"e374b097","joinBattle(uint256)":"4a042f0d","owner()":"8da5cb5b"}}}}}