{
  "_format": "hh-sol-artifact-1",
  "contractName": "BattleBet2",
  "sourceName": "contracts/AiBeastsBattle2.sol",
  "abi": [
    {
      "inputs": [],
      "stateMutability": "nonpayable",
      "type": "constructor"
    },
    {
      "inputs": [],
      "name": "battleCounter",
      "outputs": [
        {
          "internalType": "uint256",
          "name": "",
          "type": "uint256"
        }
      ],
      "stateMutability": "view",
      "type": "function"
    },
    {
      "inputs": [
        {
          "internalType": "uint256",
          "name": "",
          "type": "uint256"
        }
      ],
      "name": "battles",
      "outputs": [
        {
          "internalType": "address",
          "name": "player1",
          "type": "address"
        },
        {
          "internalType": "address",
          "name": "player2",
          "type": "address"
        },
        {
          "internalType": "uint256",
          "name": "stake",
          "type": "uint256"
        },
        {
          "internalType": "bool",
          "name": "player1Staked",
          "type": "bool"
        },
        {
          "internalType": "bool",
          "name": "player2Staked",
          "type": "bool"
        },
        {
          "internalType": "address",
          "name": "winner",
          "type": "address"
        },
        {
          "internalType": "bool",
          "name": "finished",
          "type": "bool"
        }
      ],
      "stateMutability": "view",
      "type": "function"
    },
    {
      "inputs": [
        {
          "internalType": "uint256",
          "name": "_stake",
          "type": "uint256"
        }
      ],
      "name": "createBattle",
      "outputs": [
        {
          "internalType": "uint256",
          "name": "",
          "type": "uint256"
        }
      ],
      "stateMutability": "nonpayable",
      "type": "function"
    },
    {
      "inputs": [
        {
          "internalType": "uint256",
          "name": "_battleId",
          "type": "uint256"
        },
        {
          "internalType": "address",
          "name": "_winner",
          "type": "address"
        }
      ],
      "name": "declareWinner",
      "outputs": [],
      "stateMutability": "nonpayable",
      "type": "function"
    },
    {
      "inputs": [
        {
          "internalType": "uint256",
          "name": "_battleId",
          "type": "uint256"
        }
      ],
      "name": "joinBattle",
      "outputs": [],
      "stateMutability": "payable",
      "type": "function"
    },
    {
      "inputs": [],
      "name": "owner",
      "outputs": [
        {
          "internalType": "address",
          "name": "",
          "type": "address"
        }
      ],
      "stateMutability": "view",
      "type": "function"
    }
  ],
  "bytecode": "0x6080806040523461002857600280546001600160a01b031916331790556106c2908161002e8239f35b600080fdfe608060408181526004908136101561001657600080fd5b600092833560e01c9081634a042f0d146104aa57508063606d2e961461041e5780638da5cb5b146103e957806394d44f1214610376578063a9b9be3f146103555763e374b0971461006657600080fd5b3461035157806003193601126103515760249073ffffffffffffffffffffffffffffffffffffffff90823582811680820361034d578360025416330361030b57853587526020936001855283882091600383019182549160ff8316806102fe575b156102bd5760ff8360b01c1661027c5781855416811491821561026c575b50501561022b577fffffffffffffffffff000000000000000000000000000000000000000000ffff16601084901b75ffffffffffffffffffffffffffffffffffffffff00001617760100000000000000000000000000000000000000000000179055600290810154600181901b92918115918404141715610219578680809381935af13d156102145767ffffffffffffffff3d81811161020257835191601f8201601f19908116603f01168301908111838210176101f0578452815286843d92013e5b156101b1578480f35b5162461bcd60e51b8152928301526019908201527f5472616e7366657220746f2077696e6e6572206661696c6564000000000000006044820152606490fd5b868960418a634e487b7160e01b835252fd5b8588604189634e487b7160e01b835252fd5b6101a8565b8487601188634e487b7160e01b835252fd5b606488600e898989519362461bcd60e51b85528401528201527f496e76616c69642077696e6e65720000000000000000000000000000000000006044820152fd5b60018601541614905038806100e5565b60648a60178b8b8b519362461bcd60e51b85528401528201527f426174746c6520616c72656164792066696e69736865640000000000000000006044820152fd5b60648a60178b8b8b519362461bcd60e51b85528401528201527f426f746820706c6179657273206d757374207374616b650000000000000000006044820152fd5b5060ff8360081c166100c7565b606486600d87602087519362461bcd60e51b85528401528201527f4e6f7420746865206f776e6572000000000000000000000000000000000000006044820152fd5b8680fd5b8280fd5b838234610372578160031936011261037257602091549051908152f35b5080fd5b5082346103e65760203660031901126103e657805460001981146103d357926001602094018083558252600184526002838320913373ffffffffffffffffffffffffffffffffffffffff1984541617835535910155549051908152f35b602482601186634e487b7160e01b835252fd5b80fd5b83823461037257816003193601126103725760209073ffffffffffffffffffffffffffffffffffffffff600254169051908152f35b509034610351576020366003190112610351578160e09360ff923581526001602052209173ffffffffffffffffffffffffffffffffffffffff8084541693816001820154169260036002830154920154938151968752602087015285015282821615156060850152828260081c16151560808501528160101c1660a084015260b01c16151560c0820152f35b6020939150366003190184136106885781358552600184528285209060028201543403610648575060018101805473ffffffffffffffffffffffffffffffffffffffff9081811615610627575b508083541633149081928215610619575b5050156105d757600391901561057557019283549260ff84166105345750505060ff1916600117905580f35b60649350519162461bcd60e51b8352820152601660248201527f506c617965723120616c7265616479207374616b6564000000000000000000006044820152fd5b019283549260ff8460081c166105965750505061ff00191661010017905580f35b60649350519162461bcd60e51b8352820152601660248201527f506c617965723220616c7265616479207374616b6564000000000000000000006044820152fd5b6064838686519162461bcd60e51b8352820152601160248201527f4e6f742061207061727469636970616e740000000000000000000000000000006044820152fd5b909150541633143880610508565b73ffffffffffffffffffffffffffffffffffffffff191633178255386104f7565b80858462461bcd60e51b60649452820152601760248201527f4d7573742073656e6420636f7272656374207374616b650000000000000000006044820152fd5b8480fdfea26469706673582212203845953fc82d314af59de558111a8c2a26d0c639baa1f81057920aa2f194656a64736f6c63430008180033",
  "linkReferences": {},
  "deployedLinkReferences": {}
}