{
  "_format": "hh-sol-artifact-1",
  "contractName": "BattleBet",
  "sourceName": "contracts/AiBeastsBattle.sol",
  "abi": [
    {
      "inputs": [
        {
          "internalType": "address",
          "name": "_feeWallet",
          "type": "address"
        }
      ],
      "stateMutability": "nonpayable",
      "type": "constructor"
    },
    {
      "inputs": [],
      "name": "battleCounter",
      "outputs": [
        {
          "internalType": "uint256",
          "name": "",
          "type": "uint256"
        }
      ],
      "stateMutability": "view",
      "type": "function"
    },
    {
      "inputs": [
        {
          "internalType": "uint256",
          "name": "",
          "type": "uint256"
        }
      ],
      "name": "battles",
      "outputs": [
        {
          "internalType": "address",
          "name": "player1",
          "type": "address"
        },
        {
          "internalType": "address",
          "name": "player2",
          "type": "address"
        },
        {
          "internalType": "uint256",
          "name": "stake",
          "type": "uint256"
        },
        {
          "internalType": "bool",
          "name": "player1Staked",
          "type": "bool"
        },
        {
          "internalType": "bool",
          "name": "player2Staked",
          "type": "bool"
        },
        {
          "internalType": "address",
          "name": "winner",
          "type": "address"
        },
        {
          "internalType": "bool",
          "name": "finished",
          "type": "bool"
        }
      ],
      "stateMutability": "view",
      "type": "function"
    },
    {
      "inputs": [
        {
          "internalType": "uint256",
          "name": "_battleId",
          "type": "uint256"
        }
      ],
      "name": "cancelBattle",
      "outputs": [],
      "stateMutability": "nonpayable",
      "type": "function"
    },
    {
      "inputs": [],
      "name": "createAndJoinBattle",
      "outputs": [
        {
          "internalType": "uint256",
          "name": "",
          "type": "uint256"
        }
      ],
      "stateMutability": "payable",
      "type": "function"
    },
    {
      "inputs": [
        {
          "internalType": "address",
          "name": "_player2",
          "type": "address"
        },
        {
          "internalType": "uint256",
          "name": "_stake",
          "type": "uint256"
        }
      ],
      "name": "createBattle",
      "outputs": [
        {
          "internalType": "uint256",
          "name": "",
          "type": "uint256"
        }
      ],
      "stateMutability": "nonpayable",
      "type": "function"
    },
    {
      "inputs": [
        {
          "internalType": "uint256",
          "name": "_battleId",
          "type": "uint256"
        },
        {
          "internalType": "address",
          "name": "_winner",
          "type": "address"
        }
      ],
      "name": "declareWinner",
      "outputs": [],
      "stateMutability": "nonpayable",
      "type": "function"
    },
    {
      "inputs": [
        {
          "internalType": "uint256",
          "name": "_battleId",
          "type": "uint256"
        }
      ],
      "name": "joinBattle",
      "outputs": [],
      "stateMutability": "payable",
      "type": "function"
    },
    {
      "inputs": [
        {
          "internalType": "uint256",
          "name": "_battleId",
          "type": "uint256"
        }
      ],
      "name": "joinExistingBattle",
      "outputs": [],
      "stateMutability": "payable",
      "type": "function"
    }
  ],
  "bytecode": "0x60803461007f57601f610af938819003918201601f19168301916001600160401b038311848410176100845780849260209460405283398101031261007f57516001600160a01b0381169081900361007f57600a60045560018060a01b0319338160025416176002556003541617600355604051610a5e908161009b8239f35b600080fd5b634e487b7160e01b600052604160045260246000fdfe608060408181526004908136101561001657600080fd5b600092833560e01c908163046b54db146108af575080634a042f0d1461074d5780634c4c447e1461057d578063606d2e96146104fe578063a9b9be3f146104e1578063af42910014610428578063c0726e91146103af5763e374b0971461007c57600080fd5b346103ab57806003193601126103ab576024908135906001600160a01b038083168084036103a7578160025416330361033f57853587526020936001855283882090600382019081549060ff821680610332575b156102f157858260101c166102b05785845416851480156102a1575b156102605760029392917fffffffffffffffffff000000000000000000000000000000000000000000ffff75ffffffffffffffffffffffffffffffffffffffff00007601000000000000000000000000000000000000000000009360101b169116171790550154918260011b928084046002149015171561024e57865480840290848204148415171561023c57606490049081840393841161023c57888080938193600354165af161019c6109c7565b50156101fb578680809381935af16101b26109c7565b50156101bc578480f35b5162461bcd60e51b8152928301526016908201527f57696e6e6572207472616e73666572206661696c6564000000000000000000006044820152606490fd5b6064866013878787519362461bcd60e51b85528401528201527f466565207472616e73666572206661696c6564000000000000000000000000006044820152fd5b868960118a634e487b7160e01b835252fd5b8588601189634e487b7160e01b835252fd5b60648a600e8b8b8b519362461bcd60e51b85528401528201527f496e76616c69642077696e6e65720000000000000000000000000000000000006044820152fd5b508560018501541685146100ec565b60648a60178b8b8b519362461bcd60e51b85528401528201527f57696e6e657220616c7265616479206465636c617265640000000000000000006044820152fd5b60648a60178b8b8b519362461bcd60e51b85528401528201527f426f746820706c6179657273206d757374207374616b650000000000000000006044820152fd5b5060ff8260081c166100d0565b608486602587602087519362461bcd60e51b85528401528201527f4f6e6c7920746865206f776e65722063616e2063616c6c20746869732066756e60448201527f6374696f6e0000000000000000000000000000000000000000000000000000006064820152fd5b8680fd5b8280fd5b5090346103ab57816003193601126103ab57356001600160a01b0381168091036103ab57916020926103e18254610957565b8083558252600184528282209073ffffffffffffffffffffffffffffffffffffffff1990338284541617835560018301918254161790556002602435910155549051908152f35b50919060203660031901126104dd57803582526001602052828220906104536002830154341461097c565b60018201908154906001600160a01b03821661049a575073ffffffffffffffffffffffffffffffffffffffff191633179055600301805461ff001916610100179055905080f35b606490602087519162461bcd60e51b8352820152601e60248201527f426174746c6520616c72656164792068617320616e206f70706f6e656e7400006044820152fd5b5080fd5b8382346104dd57816003193601126104dd57602091549051908152f35b5090346103ab5760203660031901126103ab578160e09360ff92358152600160205220916001600160a01b038084541693816001820154169260036002830154920154938151968752602087015285015282821615156060850152828260081c16151560808501528160101c1660a084015260b01c16151560c0820152f35b50346103ab57602090816003193601126107495782358452600182528084206001600160a01b0380825416908133036106e157600183015416610678576003820180549260ff84161561063657879384938493600285940192848454945560ff191690555af16105eb6109c7565b50156105f5578380f35b60649350519162461bcd60e51b8352820152600d60248201527f526566756e64206661696c6564000000000000000000000000000000000000006044820152fd5b6064878787519162461bcd60e51b8352820152601260248201527f4e6f2066756e647320746f20726566756e6400000000000000000000000000006044820152fd5b505060849350519162461bcd60e51b8352820152602560248201527f43616e6e6f742063616e63656c3b20706c617965723220616c7265616479206a60448201527f6f696e65640000000000000000000000000000000000000000000000000000006064820152fd5b6084868686519162461bcd60e51b8352820152602360248201527f4f6e6c7920506c61796572312063616e2063616e63656c20746869732062617460448201527f746c6500000000000000000000000000000000000000000000000000000000006064820152fd5b8380fd5b5060203660031901126103ab578135835260016020528083206107756002820154341461097c565b6001600160a01b038082541633148091811561089f575b501561085c5760039190156107f957019182549160ff83166107b657505060ff1916600117905580f35b906020606492519162461bcd60e51b8352820152601660248201527f506c617965723120616c7265616479207374616b6564000000000000000000006044820152fd5b019182549160ff8360081c1661081957505061ff00191661010017905580f35b906020606492519162461bcd60e51b8352820152601660248201527f506c617965723220616c7265616479207374616b6564000000000000000000006044820152fd5b606484602085519162461bcd60e51b8352820152601160248201527f4e6f742061207061727469636970616e740000000000000000000000000000006044820152fd5b905060018301541633143861078c565b848092506003193601126104dd57341561091657602083836108d18154610957565b80825581526001835260038282203373ffffffffffffffffffffffffffffffffffffffff1982541617815534600282015501600160ff19825416179055549051908152f35b8060208562461bcd60e51b60649452820152601f60248201527f5374616b65206d7573742062652067726561746572207468616e207a65726f006044820152fd5b60001981146109665760010190565b634e487b7160e01b600052601160045260246000fd5b1561098357565b606460405162461bcd60e51b815260206004820152601760248201527f4d7573742073656e6420636f7272656374207374616b650000000000000000006044820152fd5b3d15610a235767ffffffffffffffff903d828111610a0d5760405192601f8201601f19908116603f0116840190811184821017610a0d5760405282523d6000602084013e565b634e487b7160e01b600052604160045260246000fd5b60609056fea26469706673582212206d7ed0bd210adfbeb08f0d1afdb6a610c582f048b95687f8121ed5b5f93b13a364736f6c63430008180033",
  "linkReferences": {},
  "deployedLinkReferences": {}
}