{
  "_format": "hh-sol-artifact-1",
  "contractName": "BattleBet",
  "sourceName": "contracts/AiBeastsBattle.sol",
  "abi": [
    {
      "inputs": [],
      "name": "battleCounter",
      "outputs": [
        {
          "internalType": "uint256",
          "name": "",
          "type": "uint256"
        }
      ],
      "stateMutability": "view",
      "type": "function"
    },
    {
      "inputs": [
        {
          "internalType": "uint256",
          "name": "",
          "type": "uint256"
        }
      ],
      "name": "battles",
      "outputs": [
        {
          "internalType": "address",
          "name": "player1",
          "type": "address"
        },
        {
          "internalType": "address",
          "name": "player2",
          "type": "address"
        },
        {
          "internalType": "uint256",
          "name": "stake",
          "type": "uint256"
        },
        {
          "internalType": "bool",
          "name": "player1Staked",
          "type": "bool"
        },
        {
          "internalType": "bool",
          "name": "player2Staked",
          "type": "bool"
        },
        {
          "internalType": "address",
          "name": "winner",
          "type": "address"
        },
        {
          "internalType": "bool",
          "name": "finished",
          "type": "bool"
        }
      ],
      "stateMutability": "view",
      "type": "function"
    },
    {
      "inputs": [
        {
          "internalType": "address",
          "name": "_player2",
          "type": "address"
        },
        {
          "internalType": "uint256",
          "name": "_stake",
          "type": "uint256"
        }
      ],
      "name": "createBattle",
      "outputs": [
        {
          "internalType": "uint256",
          "name": "",
          "type": "uint256"
        }
      ],
      "stateMutability": "nonpayable",
      "type": "function"
    },
    {
      "inputs": [
        {
          "internalType": "uint256",
          "name": "_battleId",
          "type": "uint256"
        },
        {
          "internalType": "address",
          "name": "_winner",
          "type": "address"
        }
      ],
      "name": "declareWinner",
      "outputs": [],
      "stateMutability": "nonpayable",
      "type": "function"
    },
    {
      "inputs": [
        {
          "internalType": "uint256",
          "name": "_battleId",
          "type": "uint256"
        }
      ],
      "name": "joinBattle",
      "outputs": [],
      "stateMutability": "payable",
      "type": "function"
    }
  ],
  "bytecode": "0x60808060405234610016576105f4908161001c8239f35b600080fdfe608060408181526004908136101561001657600080fd5b600092833560e01c9081634a042f0d1461040e57508063606d2e9614610382578063a9b9be3f14610365578063c0726e91146102b55763e374b0971461005b57600080fd5b346102b157806003193601126102b157602490813573ffffffffffffffffffffffffffffffffffffffff808216908183036102ad5785358752600160205283872091600383019182549160ff8316806102a0575b1561025e5781855416811491821561024e575b50501561020c577fffffffffffffffffff000000000000000000000000000000000000000000ffff16601084901b75ffffffffffffffffffffffffffffffffffffffff00001617760100000000000000000000000000000000000000000000179055600290810154600181901b929181159184041417156101fa578580809381935af13d156101f55767ffffffffffffffff3d8181116101e357835191601f8201601f19908116603f01168301908111838210176101d157845281528560203d92013e5b1561018f578380f35b606492916020601992519362461bcd60e51b85528401528201527f5472616e7366657220746f2077696e6e6572206661696c6564000000000000006044820152fd5b8588604189634e487b7160e01b835252fd5b8487604188634e487b7160e01b835252fd5b610186565b8386601187634e487b7160e01b835252fd5b606487600e88602089519362461bcd60e51b85528401528201527f496e76616c69642077696e6e65720000000000000000000000000000000000006044820152fd5b60018601541614905038806100c2565b60648960178a60208b519362461bcd60e51b85528401528201527f426f746820706c6179657273206d757374207374616b650000000000000000006044820152fd5b5060ff8360081c166100af565b8680fd5b8280fd5b508234610362578160031936011261036257823573ffffffffffffffffffffffffffffffffffffffff811680910361035e578154600019811461034b5760209450600101808355825260018452828220907fffffffffffffffffffffffff000000000000000000000000000000000000000090338284541617835560018301918254161790556002602435910155549051908152f35b602483601187634e487b7160e01b835252fd5b5080fd5b80fd5b83823461035e578160031936011261035e57602091549051908152f35b5090346102b15760203660031901126102b1578160e09360ff923581526001602052209173ffffffffffffffffffffffffffffffffffffffff8084541693816001820154169260036002830154920154938151968752602087015285015282821615156060850152828260081c16151560808501528160101c1660a084015260b01c16151560c0820152f35b6020939150366003190184136105ba578135855260018452828520906002820154340361057a575073ffffffffffffffffffffffffffffffffffffffff8082541633148091811561056a575b50156105285760039190156104c657019283549260ff84166104855750505060ff1916600117905580f35b60649350519162461bcd60e51b8352820152601660248201527f506c617965723120616c7265616479207374616b6564000000000000000000006044820152fd5b019283549260ff8460081c166104e75750505061ff00191661010017905580f35b60649350519162461bcd60e51b8352820152601660248201527f506c617965723220616c7265616479207374616b6564000000000000000000006044820152fd5b6064838686519162461bcd60e51b8352820152601160248201527f4e6f742061207061727469636970616e740000000000000000000000000000006044820152fd5b905060018301541633143861045a565b80858462461bcd60e51b60649452820152601760248201527f4d7573742073656e6420636f7272656374207374616b650000000000000000006044820152fd5b8480fdfea26469706673582212202f7278e9092a889c2ae3b519ded53096cd564a4716f9958ba26664dc14ec615164736f6c63430008180033",
  "linkReferences": {},
  "deployedLinkReferences": {}
}