{
  "_format": "hh-sol-artifact-1",
  "contractName": "BattleBet",
  "sourceName": "contracts/AiBeastsBattle.sol",
  "abi": [
    {
      "inputs": [],
      "name": "battleCounter",
      "outputs": [
        {
          "internalType": "uint256",
          "name": "",
          "type": "uint256"
        }
      ],
      "stateMutability": "view",
      "type": "function"
    },
    {
      "inputs": [
        {
          "internalType": "uint256",
          "name": "",
          "type": "uint256"
        }
      ],
      "name": "battles",
      "outputs": [
        {
          "internalType": "address",
          "name": "player1",
          "type": "address"
        },
        {
          "internalType": "address",
          "name": "player2",
          "type": "address"
        },
        {
          "internalType": "uint256",
          "name": "stake",
          "type": "uint256"
        },
        {
          "internalType": "bool",
          "name": "player1Staked",
          "type": "bool"
        },
        {
          "internalType": "bool",
          "name": "player2Staked",
          "type": "bool"
        },
        {
          "internalType": "address",
          "name": "winner",
          "type": "address"
        },
        {
          "internalType": "bool",
          "name": "finished",
          "type": "bool"
        }
      ],
      "stateMutability": "view",
      "type": "function"
    },
    {
      "inputs": [
        {
          "internalType": "address",
          "name": "_player2",
          "type": "address"
        },
        {
          "internalType": "uint256",
          "name": "_stake",
          "type": "uint256"
        }
      ],
      "name": "createBattle",
      "outputs": [
        {
          "internalType": "uint256",
          "name": "",
          "type": "uint256"
        }
      ],
      "stateMutability": "nonpayable",
      "type": "function"
    },
    {
      "inputs": [
        {
          "internalType": "uint256",
          "name": "_battleId",
          "type": "uint256"
        },
        {
          "internalType": "address",
          "name": "_winner",
          "type": "address"
        }
      ],
      "name": "declareWinner",
      "outputs": [],
      "stateMutability": "nonpayable",
      "type": "function"
    },
    {
      "inputs": [
        {
          "internalType": "uint256",
          "name": "_battleId",
          "type": "uint256"
        }
      ],
      "name": "joinBattle",
      "outputs": [],
      "stateMutability": "payable",
      "type": "function"
    }
  ],
  "bytecode": "0x608080604052346100165761063c908161001c8239f35b600080fdfe608060408181526004908136101561001657600080fd5b600092833560e01c9081634a042f0d1461045657508063606d2e96146103ca578063a9b9be3f146103ad578063c0726e91146102fd5763e374b0971461005b57600080fd5b346102f957806003193601126102f95760249073ffffffffffffffffffffffffffffffffffffffff9082358281168082036102f557853587526020936001855283882091600383019182549160ff8316806102e8575b156102a75760ff8360b01c1661026657818554168114918215610256575b505015610215577fffffffffffffffffff000000000000000000000000000000000000000000ffff16601084901b75ffffffffffffffffffffffffffffffffffffffff00001617760100000000000000000000000000000000000000000000179055600290810154600181901b92918115918404141715610203578680809381935af13d156101fe5767ffffffffffffffff3d8181116101ec57835191601f8201601f19908116603f01168301908111838210176101da578452815286843d92013e5b1561019b578480f35b5162461bcd60e51b8152928301526019908201527f5472616e7366657220746f2077696e6e6572206661696c6564000000000000006044820152606490fd5b868960418a634e487b7160e01b835252fd5b8588604189634e487b7160e01b835252fd5b610192565b8487601188634e487b7160e01b835252fd5b606488600e898989519362461bcd60e51b85528401528201527f496e76616c69642077696e6e65720000000000000000000000000000000000006044820152fd5b60018601541614905038806100cf565b60648a60178b8b8b519362461bcd60e51b85528401528201527f426174746c6520616c72656164792066696e69736865640000000000000000006044820152fd5b60648a60178b8b8b519362461bcd60e51b85528401528201527f426f746820706c6179657273206d757374207374616b650000000000000000006044820152fd5b5060ff8360081c166100b1565b8680fd5b8280fd5b5082346103aa57816003193601126103aa57823573ffffffffffffffffffffffffffffffffffffffff81168091036103a657815460001981146103935760209450600101808355825260018452828220907fffffffffffffffffffffffff000000000000000000000000000000000000000090338284541617835560018301918254161790556002602435910155549051908152f35b602483601187634e487b7160e01b835252fd5b5080fd5b80fd5b8382346103a657816003193601126103a657602091549051908152f35b5090346102f95760203660031901126102f9578160e09360ff923581526001602052209173ffffffffffffffffffffffffffffffffffffffff8084541693816001820154169260036002830154920154938151968752602087015285015282821615156060850152828260081c16151560808501528160101c1660a084015260b01c16151560c0820152f35b60209391503660031901841361060257813585526001845282852090600282015434036105c2575073ffffffffffffffffffffffffffffffffffffffff808254163314809181156105b2575b501561057057600391901561050e57019283549260ff84166104cd5750505060ff1916600117905580f35b60649350519162461bcd60e51b8352820152601660248201527f506c617965723120616c7265616479207374616b6564000000000000000000006044820152fd5b019283549260ff8460081c1661052f5750505061ff00191661010017905580f35b60649350519162461bcd60e51b8352820152601660248201527f506c617965723220616c7265616479207374616b6564000000000000000000006044820152fd5b6064838686519162461bcd60e51b8352820152601160248201527f4e6f742061207061727469636970616e740000000000000000000000000000006044820152fd5b90506001830154163314386104a2565b80858462461bcd60e51b60649452820152601760248201527f4d7573742073656e6420636f7272656374207374616b650000000000000000006044820152fd5b8480fdfea26469706673582212204655bc3991a25a51bec689a99d449e4c301129cbb9cd513129d78faef859e29164736f6c63430008180033",
  "linkReferences": {},
  "deployedLinkReferences": {}
}